:100000000C94FE030C942A040C942A040C942A04E5
:100010000C942A040C942A040C942A040C942A04A8
:100020000C942A040C942A040C942A040C942A0498
:100030000C942A040C942A040C942A040C942A0488
:100040000C942A040C942A040C942A040C942A0478
:100050000C942A040C942A040C942A040C948A0FFD
:100060000C942A040C94B1110C9491120C942A044F
:100070000C942A040C942A040C942A040C942A0448
:100080000C942A040C942A040C942A040C942A0438
:100090000C94E9110C94D0120C942A040C942A04A8
:1000A0000C942A040C942A040C942A040C942A0418
:1000B0000C942A040C942A040C942A040C942A0408
:1000C0000C942A040C942A040C942A040C942112F3
:1000D0000C940F130C942A040C9459120C944E1384
:1000E0000C942A0400002100240027002A002D007F
:1000F0003000330001010000040107010A01000083
:100100002200250028002B002E00310034000201BF
:100110000000050108010B0100002000230026005B
:1001200029002C002F00320000010000030106010D
:10013000090105050505070508080808020202026D
:100140000A0A080804040404010101010101010173
:100150000303030303030303040707070C0C0C0C3E
:100160000C0C0C0C02020202060606060606060627
:100170000B0B0B0B0B0B0B0B0102102020080810B4
:100180002040102040800201020108040201010207
:1001900004081020408080402010080402018004E0
:1001A000020180402010080402010804020101023B
:1001B0000408102040800102040810204080000044
:1001C000090A02080B0C0D070603040100000000D9
:1001D000000000000000000000000000000000001F
:1001E0000000000000000000000011100F000000DF
:1001F00000000000000000000000000000000000FF
:100200000000000000000000003E5B4F5B3E3E6BC4
:100210004F6B3E1C3E7C3E1C183C7E3C181C577DA0
:10022000571C1C5E7F5E1C00183C1800FFE7C3E7EC
:10023000FF0018241800FFE7DBE7FF30483A060EFE
:100240002629792926407F050507407F05253F5A45
:100250003CE73C5A7F3E1C1C08081C1C3E7F1422B5
:100260007F22145F5F005F5F06097F017F00668960
:10027000956A606060606094A2FFA29408047E04A6
:100280000810207E201008082A1C08081C2A0808CC
:100290001E101010100C1E0C1E0C30383E3830068C
:1002A0000E3E0E06000000000000005F0000000788
:1002B000000700147F147F14242A7F2A12231308B6
:1002C000646236495620500008070300001C224192
:1002D000000041221C002A1C7F1C2A08083E080836
:1002E00000807030000808080808000060600020E6
:1002F000100804023E5149453E00427F40007249C9
:100300004949462141494D331814127F102745456C
:1003100045393C4A49493141211109073649494982
:1003200036464949291E00001400000040340000F0
:100330000008142241141414141400412214080259
:10034000015909063E415D594E7C1211127C7F49CC
:100350004949363E414141227F4141413E7F494921
:1003600049417F090909013E414151737F0808084D
:100370007F00417F41002040413F017F081422411E
:100380007F404040407F021C027F7F0408107F3E78
:100390004141413E7F090909063E4151215E7F09E5
:1003A000192946264949493203017F01033F40404C
:1003B000403F1F2040201F3F4038403F6314081437
:1003C0006303047804036159494D43007F4141416F
:1003D0000204081020004141417F04020102044050
:1003E00040404040000307080020545478407F28D4
:1003F0004444383844444428384444287F385454CA
:10040000541800087E090218A4A49C787F080404EC
:100410007800447D40002040403D007F102844008B
:1004200000417F40007C047804787C08040478381C
:1004300044444438FC1824241818242418FC7C084C
:10044000040408485454542404043F44243C4040C9
:10045000207C1C2040201C3C4030403C442810287C
:10046000444C9090907C4464544C440008364100C5
:100470000000770000004136080002010204023C3F
:100480002623263C1EA1A161123A4040207A38540E
:100490005455592155557941215454784121555489
:1004A000784020545579400C1E52721239555555DA
:1004B00059395454545939555454580000457C41C5
:1004C0000002457D420001457C40F0292429F0F0DE
:1004D000282528F07C545545002054547C547C0A2F
:1004E000097F4932494949323248484832324A48FC
:1004F00048303A4141217A3A42402078009DA0A0FC
:100500007D39444444393D4040403D3C24FF24244F
:10051000487E4943662B2FFC2F2BFF0929F620C06C
:10052000887E090320545479410000447D413048BD
:10053000484A32384040227A007A0A0A727D0D1900
:10054000317D2629292F28262929292630484D4062
:1005500020380808080808080808382F10C8ACBA5E
:100560002F102834FA00007B000008142A142222DD
:10057000142A1408AA005500AAAA55AA55AA0000D0
:1005800000FF00101010FF00141414FF001010FFE3
:1005900000FF1010F010F0141414FC001414F700F5
:1005A000FF0000FF00FF1414F404FC141417101FC4
:1005B00010101F101F1414141F00101010F0000052
:1005C00000001F101010101F10101010F01000006D
:1005D00000FF101010101010101010FF100000007D
:1005E000FF140000FF00FF00001F10170000FC04B4
:1005F000F414141710171414F404F40000FF00F797
:1006000014141414141414F700F7141414171410F9
:10061000101F101F141414F4141010F010F0000028
:100620001F101F0000001F14000000FC140000F049
:1006300010F01010FF10FF141414FF141010101FEE
:1006400000000000F010FFFFFFFFFFF0F0F0F0F0FF
:10065000FFFFFF0000000000FFFF0F0F0F0F0F381C
:10066000444438447C2A2A3E147E02020606027E56
:10067000027E0263554941633844443C04407E2075
:100680001E2006027E020299A5E7A5991C2A492A86
:100690001C4C7201724C304A4D4D30304878483015
:1006A000BC625A463D3E494949007E0101017E2A0D
:1006B0002A2A2A2A44445F444440514A4440404440
:1006C0004A51400000FF0103E080FF000008086B72
:1006D0006B083612362436060F090F06000018186C
:1006E0000000001010003040FF0101001F01011E3A
:1006F00000191D1712003C3C3C3C00000000000F9C
:100700000180961180FFB103012C2DB203012C2D25
:10071000B306012C2D012C2DB40107C003A20284C5
:10072000C101C5C2020A00C3028A2AC4028AEEC5F8
:10073000010E20003601C83A0105022A0400020019
:10074000812B04000100A0022A040000007F2B047A
:100750000000009F04E010021C07123732292D29E7
:10076000252B3900010310E110031D07062E2C294B
:100770002D2E2E373F0000021013800A29806412AC
:100780000180321180FF3A81050AB1830006030A15
:10079000360108B6021502B40100C08202700AC117
:1007A0000105C2020102C5823C380AFC021115E0B3
:1007B0001009160920211B131917151E2B040502F9
:1007C0000EE1900B14081E221D181E1B1A242B0666
:1007D00006020F0A2A04000200812B040002008195
:1007E00013800A2980FF7C3C3E5E2B3D3F2F5B5DE2
:1007F0003B2C2A225C00DA05B8147F1F11241FBE8F
:10080000CFEFD1E2DEBFCDBF00E00CBF13E0A0E030
:10081000B2E0E6E5FCE600E00BBF02C007900D92F7
:10082000AA34B107D9F71FE1AAE4B3E001C01D92D1
:10083000A23DB107E1F717E0CCEFD7E004C0229763
:10084000FE010E942536C63FD107C9F70E94840DDC
:100850000C94FF330C9400008F929F92AF92BF9242
:10086000CF92DF92EF92FF920F931F93CF93DF937C
:100870005C01FA01EE0FFF1FEE0FFF1FE80FF91FDB
:1008800082809380615070408B01000F111F000F18
:10089000111F080F191F2081318142815381E80106
:1008A00088819981AA81BB8180839183A283B3834C
:1008B000288339834A835B837B010894E108F1082C
:1008C000CC24DD2437C00894C11CD11CE9018A81E5
:1008D0009B812C5F3F4F88159905A8F3F701EE0F18
:1008E000FF1FEE0FFF1FEA0DFB1D03C00894E10878
:1008F000F108BF0182819381349788169906B0F37D
:10090000EC14FD04BCF0288139814A815B81FB0134
:1009100080819181A281B38188839983AA83BB83DB
:1009200020833183428353830894C11CD11C0894D3
:10093000E108F108C601880F991F880F991FEC1470
:10094000FD0424F09501280F391FC0CFF501E80FF1
:10095000F91F2081318142815381E8018881998189
:10096000AA81BB8180839183A283B3832883398347
:100970004A835B83C601DF91CF911F910F91FF9056
:10098000EF90DF90CF90BF90AF909F908F900895A1
:10099000EF92FF920F931F93CF93DF937C01EB01B4
:1009A000C230D105DCF0AE0141505040559547951D
:1009B000C701BE010E942C048C01C701B8010E942E
:1009C000C804C8010196880F991F880F991FE80E67
:1009D000F91E00951095C00FD11FE2CFDF91CF9186
:1009E0001F910F91FF90EF900895AF92BF92CF9219
:1009F000DF92EF92FF920F931F93CF93DF93C091FB
:100A00008703D0918803A090DB02B090DC02B5018F
:100A1000882777FD8095982F0E94363420E030E0BB
:100A200040E05FE30E943D356B017C01BE018827F9
:100A300077FD8095982F0E943634A70196010E9479
:100A40003034181614F0D7FF1EC000E018E0B801CB
:100A50006C1B7D0B882777FD8095982F0E9436347C
:100A6000A70196010E943034181694F08091D102AB
:100A70009091D202081B190B0C171D074CF0CA0DE0
:100A8000DB1DC050D840D093D802C093D7021FC0FE
:100A9000D7FF05C01092D8021092D70218C020913B
:100AA000D1023091D20280E098E0821B930B8C1728
:100AB0009D073CF4A21AB30AB092D802A092D702C2
:100AC00006C080E490E09093D8028093D702C09152
:100AD0008903D0918A03A090DD02B090DE02B501B7
:100AE000882777FD8095982F0E94363420E030E0EB
:100AF00040E05FE30E943D356B017C01BE01882729
:100B000077FD8095982F0E943634A70196010E94A8
:100B10003034181614F0D7FF1EC000E018E0B801FA
:100B20006C1B7D0B882777FD8095982F0E943634AB
:100B3000A70196010E943034181694F08091D102DA
:100B40009091D202081B190B0C171D074CF0CA0D0F
:100B5000DB1DC050D840D093DA02C093D9021FC029
:100B6000D7FF05C01092DA021092D90218C0209166
:100B7000D1023091D20280E098E0821B930B8C1757
:100B80009D073CF4A21AB30AB092DA02A092D902ED
:100B900006C080E590E09093DA028093D902DF915D
:100BA000CF911F910F91FF90EF90DF90CF90BF906A
:100BB000AF90089510924F03109250031092530378
:100BC0001092550387E593E066E047E028E00E9435
:100BD000231E8091D7029091D8022091D3023091A8
:100BE000D402820F931F9093880380938703809190
:100BF000D9029091DA022091D5023091D602820F6B
:100C0000931F90938A038093890308958091C5026E
:100C100061E00E949B108091C70261E00E949B10DE
:100C20008091C90261E00E949B108091CB0261E03B
:100C30000E949B108091CD0261E00E949B1008955C
:100C4000EF92FF920F931F93982F162FF42EE22E00
:100C50008091C502692F0E944E118091C702612FB9
:100C60000E944E118091C9026F2D0E944E118091F9
:100C7000CB026E2D0E944E118091CD02602F0E94FA
:100C80004E111F910F91FF90EF900895AF92BF9278
:100C9000CF92DF92EF92FF920F931F932091D70292
:100CA0003091D802C090DB02D090DC0237FF4AC0FE
:100CB00040918703509188032091890330918A03E2
:100CC0006091D9027091DA02A090DD02B090DE024C
:100CD000C416D5069CF0261B370B8FED92E067E516
:100CE00073E040E050E000E010E0EE24FF240E94BA
:100CF000080E809187039091880361C08091D10292
:100D00009091D202F601E81BF90BF093D802E09320
:100D1000D7024C195D09261B370B8FED92E067E572
:100D200073E000E010E0EE24FF240E94080E8091A2
:100D30008703909188032091D1023091D202821BC7
:100D4000930B5FC0A091D102B091D202C6018A1B61
:100D50009B0B821793070CF058C0E0918703F0912A
:100D6000880340E058E0CA018E1B9F0B2091890345
:100D700030918A036091D9027091DA02A090DD026D
:100D8000B090DE02C816D906FCF04C195D09261B8E
:100D9000370B8FED92E067E573E000E010E0EE24A2
:100DA000FF240E94080E8091870390918803209170
:100DB000DB023091DC02820F931F805098409093A9
:100DC000D8028093D70221C01092D8021092D70285
:100DD000EA0FFB1F261B370B8FED92E067E573E0F0
:100DE000AF0100E010E0EE24FF240E94080E809185
:100DF0008703909188032091D1023091D202820F13
:100E0000931F90938803809387032091D902309198
:100E1000DA02A090DD02B090DE0237FF4AC02091D6
:100E2000890330918A036091D7027091D802409172
:100E3000870350918803C090DB02D090DC02A21699
:100E4000B3069CF0461B570B8FED92E067E573E00D
:100E500020E030E000E010E0EE24FF240E94080EC5
:100E60008091890390918A0361C08091D102909111
:100E7000D202F501E81BF90BF093DA02E093D902F4
:100E8000461B570B2A193B098FED92E067E573E08B
:100E900000E010E0EE24FF240E94080E80918903F8
:100EA00090918A032091D1023091D202821B930B40
:100EB0005FC0A091D102B091D202C5018A1B9B0BE9
:100EC000821793070CF058C0E0918903F0918A03D0
:100ED00020E038E0C9018E1B9F0B6091D702709112
:100EE000D8024091870350918803C090DB02D090D4
:100EF000DC02A816B906FCF0461B570B2A193B0961
:100F00008FED92E067E573E000E010E0EE24FF244F
:100F10000E94080E8091890390918A032091DD023E
:100F20003091DE02820F931F805098409093DA0236
:100F30008093D90221C01092DA021092D902461B86
:100F4000570BEA0FFB1F8FED92E067E573E09F01FF
:100F500000E010E0EE24FF240E94080E8091890337
:100F600090918A032091D1023091D202820F931F77
:100F700090938A03809389031F910F91FF90EF90C4
:100F8000DF90CF90BF90AF9008950F931F93809103
:100F9000CF020E94560F2091E9023091EA022817F1
:100FA00039078CF080E090E060E070E040E050E0D5
:100FB00020E030E000E010E00E9420061092C81807
:100FC0001092C718DFC08091CF020E94560F209167
:100FD000E9023091EA02281739070CF091C080919C
:100FE000CF020E94560F2091E9023091EA02220FAF
:100FF000331F281739070CF483C081E090E060E0CC
:1010000070E040E050E020E030E000E010E00E94BE
:10101000200681E090E06FC08091CF020E94560FC1
:101020004091E9025091EA029A01220F331F240FE6
:10103000351F281739070CF471C081E090E061E09A
:1010400070E040E050E020E030E000E010E00E947E
:10105000200682E090E04FC08091CF020E94560FA0
:101060002091E9023091EA02220F331F220F331F31
:10107000281739070CF463C081E090E061E070E06C
:1010800041E050E020E030E000E010E00E94200667
:1010900083E090E030C08091CF020E94560F4091D3
:1010A000E9025091EA029A01220F331F220F331FE7
:1010B000240F351F281739070CF451C081E090E048
:1010C00061E070E041E050E021E030E000E010E05D
:1010D0000E94200684E090E00EC081E090E061E094
:1010E00070E041E050E021E030E001E010E00E94DB
:1010F000200685E090E09093C8188093C71842C0FE
:101100008091CF020E94560F2091E9023091EA02AD
:10111000220F331F281739070CF47ECF8091CF029E
:101120000E94560F4091E9025091EA029A01220F63
:10113000331F240F351F281739070CF48DCF8091EA
:10114000CF020E94560F2091E9023091EA02220F4D
:10115000331F220F331F281739070CF49CCF8091BF
:10116000CF020E94560F4091E9025091EA029A0183
:10117000220F331F220F331F240F351F2817390763
:101180000CF4ABCF1F910F910895AF92BF92CF9205
:10119000DF92EF92FF920F931F9300D00F9220E007
:1011A00038E040E050E0EDB7FEB72183328343835F
:1011B000548322EC30ED41E550E0E9E1EE2EEFE71B
:1011C000FE2EE1E50E2F112DAA24BB2465010E94FD
:1011D00022170F900F900F900F90CB011F910F913E
:1011E000FF90EF90DF90CF90BF90AF900895AF92B7
:1011F000BF92CF92DF92EF92FF920F931F9300D096
:101200000F9220E038E040E050E0EDB7FEB72183D8
:1012100032834383548324E337E842E55FEFF8E801
:10122000EF2EF0E1FF2EF3E50F2FFFEF1F2FAA2483
:10123000BB2465010E9422170F900F900F900F9012
:10124000CB011F910F91FF90EF90DF90CF90BF9057
:10125000AF900895CF92DF92EF92FF920F931F937A
:1012600007E5E02E03E0F02EC7016FEF7FEF40E0CF
:1012700050E00E945E1A8091DD079091DE0764E1E4
:1012800070E00E94D335AC0113E0440F551F1A954E
:10129000E1F7C70160E070E00E94581A8091DD0715
:1012A0009091DE0764E170E00E94D335B7E3CB2E66
:1012B000D12C8C9DB0018D9D700D9C9D700D1124C5
:1012C0000FE813E0600F711FC7010E940C17C701E0
:1012D00060E070E04FEF5FEF0E945E1A8091DB07E5
:1012E0009091DC0764E170E00E94D335AC01A3E08B
:1012F000440F551FAA95E1F7C70160E070E00E9416
:10130000581A8091DB079091DC0764E170E00E943D
:10131000D3359C012C9DC0012D9D900D3C9D900DC1
:101320001124080F191FC701B8010E940C171F9143
:101330000F91FF90EF90DF90CF900895EF92FF9282
:101340000F931F93CF93DF93182F092FEB0187E59E
:1013500093E060E070E00E944F1C87E593E060E05E
:1013600070E040E050E00E94581A87E593E060E0AA
:101370000E94641A212F302FC9018C0187E3E82EC7
:10138000F12C2AC08091DB079091DC070817190720
:1013900039F487E593E060E070E04FEF5FEF06C05F
:1013A00087E593E06FEF7FEF40E050E00E945E1A28
:1013B0000E9DB0010F9D700D1E9D700D1124615783
:1013C0007C4F87E593E00E940C1787E593E06AE085
:1013D0000E9401160F5F1F4FC017D1079CF6DF91C7
:1013E000CF911F910F91FF90EF9008958F929F9250
:1013F000AF92BF92CF92DF92EF92FF920F931F9323
:10140000CF93DF93982E892EEB01CB0168E070E03B
:101410000E94D3357B010027F7FC0095102F80E058
:1014200099E0ADE3B0E0E80EF91E0A1F1B1FA09083
:10143000E502B090E602C090E702D090E802AE1458
:10144000BF04C006D106D1F0E092E502F092E602B8
:101450000093E7021093E80206C082EF9CE160E08F
:1014600072E00E940F178AE493E0B801A70129EC0B
:1014700038E10E94D424882381F313C0209739F0E7
:1014800010C082EF9CE160E072E00E940F178AE4D6
:1014900093E0B601A50129EC38E10E94D424882309
:1014A00081F3CE0168E070E00E94D335FC0196E044
:1014B000EE0FFF1F9A95E1F7892D982D9C01D90118
:1014C000E753F74E80E401900D928150E1F7DF91F0
:1014D000CF911F910F91FF90EF90DF90CF90BF9031
:1014E000AF909F908F900895EF92FF920F931F936C
:1014F000CF93DF93C091DB07D091DC07CE0164E18D
:1015000070E00E94D335439731F46397D093DC07A2
:10151000C093DB07639600E010E037E3E32EF12C85
:10152000E091DB07F091DC07EE0FFF1FEE0FFF1FCE
:10153000E15EF74F608171818FED97E00E94F609BF
:101540000E9DC0010F9D900D1E9D900D1124815781
:101550009C4F68EE77E00E941A348091DB079091EF
:10156000DC0701969093DC078093DB070F5F1F4F2A
:1015700004311105A9F6D093DC07C093DB0780E0A6
:1015800090E063E170E00E949E09DF91CF911F918E
:101590000F91FF90EF900895AF92BF92CF92DF929C
:1015A000EF92FF920F931F93CF93DF9389E00E94F6
:1015B0008111CC24DD24C0E0D0E08FED97E0BE01A6
:1015C0000E94F6096091E70770E06F5F7F4F7595A5
:1015D0006795882777FD8095982F0E9436340E9462
:1015E00071347B018C016091C7187091C8188827ED
:1015F00077FD8095982F0E9436349B01AC01C8017D
:10160000B7010E94393588230CF444C0F601EE0F6F
:10161000FF1FEE0FFF1FE15EF74FD183C083609184
:10162000E3077091E4078091E5079091E6070E9437
:10163000F70820918703309188038C01021B130B5C
:101640006091DF077091E0078091E1079091E207D8
:101650000E94C508F601EE0FFF1FEE0FFF1FEF5DA2
:10166000F74F2091890330918A03821B930B9C01D1
:1016700097FF03C0309521953F4FC80117FF03C066
:10168000909581959F4F280F391F318320830894AF
:10169000C11CD11C219684E0CA32D80709F08DCF35
:1016A0008FE198E0B6010E94C804CFE1D8E000E0E5
:1016B00010E0B7E3EB2EF12C688179818FED97E094
:1016C0000E94F6090E9DC0010F9D900D1E9D900D6C
:1016D000112481579C4F68EE77E00E941A340F5F07
:1016E0001F4F24960431110539F71092DC07109230
:1016F000DB0780E090E063E170E00E949E0964EF08
:1017000071E080E090E00E94E00F80E00E94560FC0
:101710008C010E94C50780E00E94560FEC0189E011
:101720000E9481112091DB073091DC073093DE07A6
:101730002093DD07892B09F07CC068EC70E080E025
:1017400090E00E94E00FE091DB07F091DC07EE0FE4
:10175000FF1FEE0FFF1FE15EF74F608171818FED7C
:1017600097E00E94F6096091E3077091E407809189
:10177000E5079091E6070E94F7089093880380930D
:1017800087036091DF077091E0078091E1079091F6
:10179000E2070E94C50890938A03809389030E9400
:1017A000F50440918703509188038091D70290916E
:1017B000D802481B590B2091890330918A038091EC
:1017C000D9029091DA02281B390BC090DB02D0902D
:1017D000DC02A090DD02B090DE028FED92E067E5C2
:1017E00073E000E010E0EE24FF240E94080E009158
:1017F000D1021091D2026091D7027091D80240912B
:10180000D9025091DA0287E593E09801E0EEEE2EDE
:10181000EFEFFE2E0E946A1C0E94520CDF91CF91C6
:101820001F910F91FF90EF90DF90CF90BF90AF90FE
:101830000895CE01801B910B97FF0DC0C901019740
:101840009093DC078093DB0764E170E00E94D3355E
:101850004397A9F411C0892BA1F02F5F3F4F30931C
:10186000DC072093DB07C90164E170E00E94D335F7
:10187000892B29F4232B19F00E94740A02C00E94BC
:101880002A098091DB079091DC0797FF04C0109232
:10189000DC071092DB0768EC70E080E090E00E94CB
:1018A000E00F37CF4F925F926F927F928F929F920D
:1018B000AF92BF92CF92DF92EF92FF920F931F935E
:1018C000CF93DF9381E00E94560F3C0180E00E949D
:1018D000560F4C01412CF8E05F2E0E94C507809105
:1018E000D7029091D80290938C0380938B038091C0
:1018F000D9029091DA0290938E0380938D038091A8
:10190000870390918803909384038093830380914D
:10191000890390918A03909386038093850381E0E5
:101920000E94560F8C0180E00E94560F7C0189E0D6
:101930000E948111EC01C8018619970964E670E0E4
:101940000E94D335FB018091D7029091D802860F77
:10195000971F9093D8028093D702C70188199909DD
:1019600064E670E00E94D3359B018091D90290918A
:10197000DA02860F971F9093DA028093D902809142
:101980008703909188038E0F9F1F90938803809305
:1019900087036091890370918A03620F731F7093AC
:1019A0008A036093890340918303509184038417D1
:1019B000950739F48091850390918603681779071C
:1019C000B9F0A090D102B090D2022091850330915D
:1019D000860300918B0310918C03E0908D03F090AF
:1019E0008E038FED92E067E573E065010E94080EBB
:1019F000209187033091880337FF03C080E090E097
:101A00000CC08091D1029091D202A201481B590BC7
:101A1000CA01241735070CF4C901909388038093F9
:101A200087032091890330918A0337FF03C080E048
:101A300090E00CC08091D1029091D202A201481B8B
:101A4000590BCA01241735070CF4C90190938A0376
:101A5000809389030E9446060091D1021091D20220
:101A60006091D7027091D8024091D9025091DA0268
:101A700087E593E09801E0EEEE2EEFEFFE2E0E9458
:101A80006A1C82EF9CE161E272E00E940C17609197
:101A900087037091880382EF9CE14AE050E00E9446
:101AA000F91682EF9CE163E372E00E940C176091EB
:101AB000890370918A0382EF9CE14AE050E00E9422
:101AC000F91682EF9CE165E472E00E940C1782EF48
:101AD0009CE1BE014AE050E00E94F91682EF9CE1D1
:101AE0000E94091662E370E080E090E00E94E00F3F
:101AF000CD2B09F0F2CE62E370E080E090E00E942E
:101B0000E00F0E94CC0AE9CEAF92BF92CF92DF9253
:101B1000EF92FF920F931F930E94391082EF9CE186
:101B200040E855E260E070E00E948D1389E060E0DB
:101B30000E949B1089E061E00E944E1187E593E0CE
:101B400062E00E94F51D82EF9CE16CE472E00E946D
:101B50000C178EE69DE165E04FEF2FEF0FEF0E942F
:101B6000F621882339F482EF9CE164E672E00E945A
:101B70000F17FFCF82EF9CE16CE672E00E940F1717
:101B800082EF9CE160E772E00E940C178AE493E028
:101B900061E045E02FEF0FEFEE24EA940E94E42489
:101BA000882339F482EF9CE164E672E00E940F170B
:101BB000FFCF82EF9CE16CE672E00E940F170E945B
:101BC00006064091D3025091D4022091D502309163
:101BD000D602C090DB02D090DC02A090DD02B09073
:101BE000DE028FED92E067E573E000E010E0EE24A6
:101BF000FF240E94080E0E94520C80E090E01F918A
:101C00000F91FF90EF90DF90CF90BF90AF9008952D
:101C10002F923F924F925F926F927F928F929F92FC
:101C2000AF92BF92CF92DF92EF92FF920F931F93EA
:101C3000DF93CF93CDB7DEB7C654D0400FB6F8943C
:101C4000DEBF0FBECDBF98AF8FAB7AAF69AF5CAFD1
:101C50004BAF4901F02E1601BEAEADAE8DB79EB7AB
:101C600021969FAF8EAF2197CE0101960E94441E10
:101C7000AFA9B8AD4D915C91CE014C966EE67DE179
:101C800021E00E94C4208E8D9F8D9C838B8388A130
:101C900099A1AAA1BBA18D839E83AF83B8878CA194
:101CA0009DA1AEA1BFA189879A87AB87BC87DE01C2
:101CB0001D96FE01B8968DE001900D928150E1F7DE
:101CC0008DA99EA99B8F8A8F2E010894411C511CBF
:101CD000C2010E94941E182FCE014C960E94571EDE
:101CE0001123A1F482EF9CE168E972E00E940C17D5
:101CF000EFA9F8AD6081718182EF9CE10E940C1721
:101D000082EF9CE167E20E942916A9C02F2D215085
:101D1000220D0E2D0150FDAD0F0F89AD9AAD6F2D27
:101D20004E2D0E94F91A3101660C771C5401CC2407
:101D3000DD2488249924C201542C492EABADBCADBE
:101D4000CD01A0E0B0E027968CAF9DAFAEAFBFAFA6
:101D5000279778C0FDB6EEB62296FFAE229723965F
:101D6000EFAE23978DB79EB7861997090FB6F894F3
:101D70009EBF0FBE8DBF0DB71EB70F5F1F4FAFA920
:101D8000B8AD12962D913C91139740E050E0C601FA
:101D9000B5010E94A035AB01BC0127968CAD9DAD6D
:101DA000AEADBFAD2797480F591F6A1F7B1F440F69
:101DB000551F661F771F852D942D0E94B31E852DFC
:101DC000942DB801A3010E94C51E8615970519F42C
:101DD000EE24FF2420C082EF9CE169EA72E00E94B9
:101DE0000F17852D942D0E94A11E8F2D9E2D9C01D5
:101DF0000FB6F8943EBF0FBE2DBF31C0D8017C9105
:101E000011966C9189AD9AAD0E943D1B0894E11C1E
:101E1000F11C0E5F1F4FE214F30480F322968FAD86
:101E2000229723969FAD23979C010FB6F8943EBF4F
:101E30000FBE2DBF0894811C911C0894A11CB11CDD
:101E4000C11CD11CEDADFEAD8E169F0608F482CFED
:101E5000852D942D0E94A11E852D942D02C0CE01AA
:101E600001960E94571E21968EAD9FAD21970FB609
:101E7000F8949EBF0FBE8DBFCA5BDF4F0FB6F894BC
:101E8000DEBF0FBECDBFCF91DF911F910F91FF90AD
:101E9000EF90DF90CF90BF90AF909F908F907F900A
:101EA0006F905F904F903F902F900895382F86331A
:101EB00008F0365320917B00832F86958695869572
:101EC00090E08170907043E0880F991F4A95E1F788
:101ED000277F282B20937B0037708091EB0282951F
:101EE000880F880F807C832B80937C0080917A0000
:101EF000806480937A0080917A0086FDFCCF2091E7
:101F0000780040917900942F80E030E0282B392B25
:101F1000C90108951F920F920FB60F9211242F93AB
:101F20003F938F939F93AF93BF938091CD1A9091DE
:101F3000CE1AA091CF1AB091D01A3091D11A019631
:101F4000A11DB11D232F2D5F2D3720F02D57019698
:101F5000A11DB11D2093D11A8093CD1A9093CE1A52
:101F6000A093CF1AB093D01A8091C91A9091CA1A2F
:101F7000A091CB1AB091CC1A0196A11DB11D8093EE
:101F8000C91A9093CA1AA093CB1AB093CC1ABF91D6
:101F9000AF919F918F913F912F910F900FBE0F9016
:101FA0001F9018958FB7F8942091CD1A3091CE1AC2
:101FB0004091CF1A5091D01A8FBFB901CA0108952C
:101FC0009B01AC017FB7F8948091C91A9091CA1A0D
:101FD000A091CB1AB091CC1A66B5A89B05C06F3FF3
:101FE00019F00196A11DB11D7FBFBA2FA92F982FFF
:101FF0008827860F911DA11DB11D62E0880F991FD2
:10200000AA1FBB1F6A95D1F7BC012DC0FFB7F8947A
:102010008091C91A9091CA1AA091CB1AB091CC1A8A
:10202000E6B5A89B05C0EF3F19F00196A11DB11DB3
:10203000FFBFBA2FA92F982F88278E0F911DA11DA2
:10204000B11DE2E0880F991FAA1FBB1FEA95D1F7C7
:10205000861B970B885E9340C8F221503040404069
:10206000504068517C4F211531054105510571F6ED
:102070000895789484B5826084BD84B5816084BD00
:1020800085B5826085BD85B5816085BDEEE6F0E0F1
:10209000808181608083E1E8F0E01082808182604D
:1020A0008083808181608083E0E8F0E080818160CE
:1020B0008083E1EBF0E0808184608083E0EBF0E0FE
:1020C000808181608083E1E9F0E0808182608083AB
:1020D000808181608083E0E9F0E08081816080839D
:1020E000E1EAF0E08081826080838081816080838A
:1020F000E0EAF0E0808181608083E1E2F1E08081CC
:1021000082608083808181608083E0E2F1E0808171
:1021100081608083EAE7F0E0808184608083808151
:1021200082608083808181608083808180688083F9
:102130001092C1000895CF93DF93482F50E0CA0159
:1021400088589E4FFC0134914E5C5E4FFA01849199
:10215000882369F190E0880F991FFC01EC51FF4F33
:10216000A591B491FC01E250FF4FC591D491662333
:1021700051F42FB7F8948C91932F909589238C93D9
:10218000888189230BC0623061F42FB7F8948C9159
:10219000932F909589238C938881832B88832FBFDD
:1021A00006C09FB7F8948C91832B8C939FBFDF91CF
:1021B000CF910895893009F449C08A30A0F4843061
:1021C00051F1853040F4823079F1833000F581306F
:1021D00009F063C026C0873079F1883098F58630E1
:1021E00009F05BC025C08D3009F442C08E3028F460
:1021F0008B30B1F18C30C0F52DC0803109F442C074
:10220000813109F445C08F3009F047C037C0809153
:1022100080008F7703C0809180008F7D8093800045
:10222000089584B58F7702C084B58F7D84BD0895ED
:102230008091B0008F7703C08091B0008F7D809334
:10224000B0000895809190008F7707C08091900032
:102250008F7D03C080919000877F809390000895C8
:102260008091A0008F7707C08091A0008F7D03C070
:102270008091A000877F8093A00008958091200125
:102280008F7703C0809120018F7D80932001089576
:1022900080912001877F809320010895FF920F9302
:1022A0001F93F62E482F50E0CA0182549E4FFC0126
:1022B0002491CA0188589E4FFC0114914E5C5E4FD8
:1022C000FA0104910023C9F0222319F0822F0E9401
:1022D000DA10E02FF0E0EE0FFF1FE250FF4FA59164
:1022E000B4919FB7F894FF2021F48C91109581232D
:1022F00002C08C91812B8C939FBF1F910F91FF90F7
:1023000008950F931F93482F50E0CA0182549E4FA7
:10231000FC012491CA0188589E4FFC0104914E5C37
:102320005E4FFA011491112319F420E030E015C03A
:10233000222319F0822F0E94DA10812F90E0880F5B
:10234000991F885E9E4FFC01A591B4918C9120E06D
:1023500030E0802311F021E030E0C9011F910F919E
:1023600008951F920F920FB60F920BB60F92112481
:102370002F933F934F938F939F93EF93FF934091AE
:10238000C6002091121B3091131B2F5F3F4F2F73FC
:1023900030708091141B9091151B2817390759F044
:1023A000E091121BF091131BEE52F54E40833093D7
:1023B000131B2093121BFF91EF919F918F914F91CF
:1023C0003F912F910F900BBE0F900FBE0F901F905B
:1023D00018951F920F920FB60F920BB60F92112401
:1023E0002F933F934F938F939F93EF93FF9340913E
:1023F000CE0020919A1B30919B1B2F5F3F4F2F7374
:10240000307080919C1B90919D1B2817390759F0C3
:10241000E0919A1BF0919B1BE65AF44E4083309357
:102420009B1B20939A1BFF91EF919F918F914F914E
:102430003F912F910F900BBE0F900FBE0F901F90EA
:1024400018951F920F920FB60F920BB60F92112490
:102450002F933F934F938F939F93EF93FF934091CD
:10246000D6002091221C3091231C2F5F3F4F2F73E9
:1024700030708091241C9091251C2817390759F041
:10248000E091221CF091231CEE51F44E40833093D6
:10249000231C2093221CFF91EF919F918F914F91CC
:1024A0003F912F910F900BBE0F900FBE0F901F907A
:1024B00018951F920F920FB60F920BB60F92112420
:1024C0002F933F934F938F939F93EF93FF9340915D
:1024D00036012091AA1C3091AB1C2F5F3F4F2F7308
:1024E00030708091AC1C9091AD1C2817390759F0C1
:1024F000E091AA1CF091AB1CE659F34E4083309357
:10250000AB1C2093AA1CFF91EF919F918F914F914B
:102510003F912F910F900BBE0F900FBE0F901F9009
:1025200018951F920F920FB60F920BB60F921124AF
:102530002F933F938F939F93EF93FF932091561B7D
:102540003091571B8091581B9091591B28173907C0
:1025500031F48091C1008F7D8093C10014C0E0915F
:10256000581BF091591BEA5EF44E20818091581B54
:102570009091591B01968F7390709093591B809383
:10258000581B2093C600FF91EF919F918F913F912F
:102590002F910F900BBE0F900FBE0F901F901895AC
:1025A0001F920F920FB60F920BB60F9211242F931A
:1025B0003F938F939F93EF93FF932091DE1B309176
:1025C000DF1B8091E01B9091E11B2817390731F444
:1025D0008091C9008F7D8093C90014C0E091E01BF9
:1025E000F091E11BE256F44E20818091E01B909126
:1025F000E11B01968F7390709093E11B8093E01B19
:102600002093CE00FF91EF919F918F913F912F9159
:102610000F900BBE0F900FBE0F901F9018951F923A
:102620000F920FB60F920BB60F9211242F933F9378
:102630008F939F93EF93FF932091661C3091671CBB
:102640008091681C9091691C2817390731F480919A
:10265000D1008F7D8093D10014C0E091681CF0916F
:10266000691CEA5DF34E20818091681C9091691C81
:1026700001968F7390709093691C8093681C2093CF
:10268000D600FF91EF919F918F913F912F910F90E5
:102690000BBE0F900FBE0F901F9018951F920F92B8
:1026A0000FB60F920BB60F9211242F933F938F9377
:1026B0009F93EF93FF932091EE1C3091EF1C80913C
:1026C000F01C9091F11C2817390731F480913101E9
:1026D0008F7D8093310114C0E091F01CF091F11CCA
:1026E000E255F34E20818091F01C9091F11C0196EF
:1026F0008F7390709093F11C8093F01C209336019F
:10270000FF91EF919F918F913F912F910F900BBE71
:102710000F900FBE0F901F901895AF92BF92DF924F
:10272000EF92FF920F931F93CF93DF93EC017A0107
:102730008B01DD24403081EE580780E0680780E09F
:10274000780711F0DD24D39491E0A92EB12CEC8907
:10275000FD89DD2069F0C5010E8C02C0880F991F2C
:102760000A94E2F7808360E079E08DE390E005C0B1
:10277000108260E874E88EE190E0A80197010E9461
:10278000E6352150304040405040569547953795AA
:10279000279580E12030380720F0DD2011F0DD247E
:1027A000D6CFE889F9893083EA89FB892083EE89CD
:1027B000FF89408121E030E0C9010A8C02C0880F06
:1027C000991F0A94E2F7482B4083EE89FF894081E4
:1027D000C9010B8C02C0880F991F0A94E2F7482B9D
:1027E0004083EE89FF894081C9010C8C02C0880FAB
:1027F000991F0A94E2F7482B4083EE89FF89808174
:102800000D8C02C0220F331F0A94E2F72095282373
:102810002083DF91CF911F910F91FF90EF90DF9078
:10282000BF90AF900895DC011C96ED91FC911D972F
:10283000E05CFF4F2191319180819181281B390B00
:102840002F733070C9010895DC011C96ED91FC9145
:102850001D97E05CFF4F20813181E054F040DF01A3
:10286000AE5BBF4F8D919C9111972817390719F4D2
:102870002FEF3FEF07C08D919C91E80FF91F8081EA
:10288000282F30E0C9010895DC011C96ED91FC91E0
:102890001D97E05CFF4F20813181E054F040DF0163
:1028A000AE5BBF4F8D919C9111972817390719F492
:1028B0002FEF3FEF10C08D919C911197E80FF91FFA
:1028C00020818D919C91119701968F739070119634
:1028D0009C938E9330E0C9010895FC01868597850D
:1028E000DC01A05CBF4FFC01EE5BFF4F2D913C91E2
:1028F00011978081918128173907C1F70895CF93E7
:10290000DF93EC01EE85FF85E05CFF4F2081318194
:10291000E054F0402F5F3F4F2F733070DF01AE5B0C
:10292000BF4F8D919C91119728173907D1F3E05C27
:10293000FF4F80819181E054F040E80FF91F6083E0
:10294000EE85FF85E05CFF4F31832083EE89FF89B0
:10295000208181E090E00D8C02C0880F991F0A94BD
:10296000E2F7282B208381E090E0DF91CF9108955A
:102970001F931092F51C1092F41C28EE33E040E0F7
:1029800050E02093F61C3093F71C4093F81C5093B2
:10299000F91C64EF72E07093F31C6093F21C82EDFB
:1029A0009AE19093FF1C8093FE1C86E19BE190933B
:1029B000011D8093001D85EC90E09093031D809392
:1029C000021D84EC90E09093051D8093041D80EC23
:1029D00090E09093071D8093061D81EC90E090930A
:1029E000091D8093081D86EC90E090930B1D809349
:1029F0000A1D14E010930C1DB3E0B0930D1DA7E069
:102A0000A0930E1DF5E0F0930F1DE1E0E093101D83
:102A10001092141D1092131D2093151D3093161D36
:102A20004093171D5093181D7093121D6093111D34
:102A30008AE59BE190931E1D80931D1D8EE99BE10D
:102A40009093201D80931F1D8DEC90E09093221D8C
:102A50008093211D8CEC90E09093241D8093231D86
:102A600088EC90E09093261D8093251D89EC90E0E2
:102A70009093281D8093271D8EEC90E090932A1D43
:102A80008093291D10932B1DB0932C1DA0932D1DF9
:102A9000F0932E1DE0932F1D1092331D1092321DC6
:102AA0002093341D3093351D4093361D5093371DB0
:102AB0007093311D6093301D82EE9BE190933D1D1C
:102AC00080933C1D86E29CE190933F1D80933E1DC8
:102AD00085ED90E09093411D8093401D84ED90E042
:102AE0009093431D8093421D80ED90E09093451D8F
:102AF0008093441D81ED90E09093471D8093461D87
:102B000086ED90E09093491D8093481D10934A1DD7
:102B1000B0934B1DA0934C1DF0934D1DE0934E1DA3
:102B20001092521D1092511D2093531D3093541D2D
:102B30004093551D5093561D7093501D60934F1D2B
:102B40008AE69CE190935C1D80935B1D8EEA9CE17C
:102B500090935E1D80935D1D85E391E09093601DD1
:102B600080935F1D84E391E09093621D8093611DCB
:102B700080E391E09093641D8093631D81E391E075
:102B80009093661D8093651D86E391E09093681D88
:102B90008093671D1093691DB0936A1DA0936B1DF0
:102BA000F0936C1DE0936D1D1F9108950895CF92D1
:102BB000DF92EF92FF920F931F93CF93DF937C01ED
:102BC0006B018A01C0E0D0E00FC0D6016D916D01AC
:102BD000D701ED91FC910190F081E02DC70119958D
:102BE000C80FD91F015010400115110571F7CE0112
:102BF000DF91CF911F910F91FF90EF90DF90CF90D9
:102C00000895DC01ED91FC910190F081E02D199582
:102C10000895EF92FF920F931F938C01DC01ED91C9
:102C2000FC910190F081E02D6DE019957C01D801B7
:102C3000ED91FC910190F081E02DC8016AE01995B9
:102C40009C012E0D3F1DC9011F910F91FF90EF9028
:102C50000895EF92FF920F931F937C01DC01ED9199
:102C6000FC910190F081E02D19958C01C7010E9423
:102C70000916080F191FC8011F910F91FF90EF90BF
:102C80000895CF93DF93DB010D900020E9F71197B2
:102C9000A61BB70BEC01E881F9810280F381E02DDE
:102CA000AD011995DF91CF9108954F925F927F9278
:102CB0008F929F92AF92BF92CF92DF92EF92FF924C
:102CC0000F931F93DF93CF93CDB7DEB7A1970FB6C6
:102CD000F894DEBF0FBECDBF2C01742ECB01223085
:102CE00008F42AE019A231E2C32ED12CCC0EDD1E4D
:102CF000822E9924AA24BB24672D752FA501940147
:102D00000E94E63579018A01C801B701A501940145
:102D10000E94A035472D461B0894C108D1084A30AF
:102D200014F4405D01C0495CF6014083E114F104F4
:102D30000105110521F07E2C5F2DC801DDCFC201F8
:102D4000B6010E944116A1960FB6F894DEBF0FBEE1
:102D5000CDBFCF91DF911F910F91FF90EF90DF904A
:102D6000CF90BF90AF909F908F907F905F904F904B
:102D70000895CF92DF92EF92FF920F931F93CF931C
:102D8000DF93EC016A017B012115310541F4E881F3
:102D9000F9810190F081E02D642F19951FC02A3030
:102DA0003105D1F477FF17C0E881F9810190F081F6
:102DB000E02D6DE219958C0144275527BA014C1975
:102DC0005D096E097F09CE012AE00E94551698011F
:102DD000280F391F04C02AE00E9455169C01C90122
:102DE000DF91CF911F910F91FF90EF90DF90CF90E7
:102DF0000895EF92FF920F931F937B019A01002792
:102E0000F7FC0095102FB801A7010E94B9161F9179
:102E10000F91FF90EF9008950E9441160895EF9250
:102E2000FF920F931F937C010E9441168C01C701F2
:102E30000E940916080F191FC8011F910F91FF90DA
:102E4000EF9008952F923F924F925F926F927F92F0
:102E50008F929F92AF92BF92CF92DF92EF92FF92AA
:102E60000F931F93DF93CF93CDB7DEB73B014C0198
:102E700019012A016E897F89888D998D6A197B09CC
:102E80008C099D09621A730A840A950AA4019301A8
:102E90000E94A035E218F30804091509A80197015A
:102EA0000E9408362A0D3B1D4C1D5D1DB901CA014B
:102EB000CF91DF911F910F91FF90EF90DF90CF9016
:102EC000BF90AF909F908F907F906F905F904F904A
:102ED0003F902F900895FC011382128284E093E0CA
:102EE000918380837583648357834683718760876A
:102EF00053874287158A158614861786168621E021
:102F0000248B8FEF9FEF938B828B918B808B268B03
:102F100008952F923F924F925F926F927F928F927D
:102F20009F92AF92BF92CF92DF92EF92FF920F9358
:102F30001F93DF93CF9300D00F92CDB7DEB73C0144
:102F40007C836B836A015901FA82E982222433244B
:102F50009801241B350B37FF03C0309521953F4F57
:102F6000C5014B815C81841B950B97FF03C0909535
:102F700081959F4F821793075CF481E0282E312CB6
:102F8000C601CB80DC809C838B83C80185015C01FA
:102F90008B819C81A816B90644F4C501AB80BC8026
:102FA0009C838B83C80186016C012501AB81BC81A8
:102FB0004A1A5B0A7801EC18FD08F7FE04C0F09489
:102FC000E194F108F394C016D10624F088248A9481
:102FD000982C03C0B1E08B2E912CC20162E070E00E
:102FE0000E94D3358B0125C0D301ED91FC912114B2
:102FF000310441F00480F581E02DC301B6014B811D
:103000005C8107C00480F581E02DC3016B817C8168
:10301000A60129813A8119950E191F0917FF04C0CD
:10302000C80CD91C040D151DEB81FC813196FC8365
:10303000EB834B815C81A416B506B4F60F900F901C
:103040000F900F90CF91DF911F910F91FF90EF9014
:10305000DF90CF90BF90AF909F908F907F906F90B8
:103060005F904F903F902F9008954F925F926F9294
:103070007F928F929F92AF92BF92CF92DF92EF9208
:10308000FF920F931F936C015B014A0139012801E4
:10309000DC01ED91FC910284F385E02D8701199507
:1030A000D601ED91FC91A40141505040440D551DB5
:1030B0000284F385E02DC601B50193011995D6016F
:1030C000ED91FC910084F185E02DC601B501A401CC
:1030D00092011995D601ED91FC910894A108B108CF
:1030E000A60CB71C0084F185E02DC601B501A40132
:1030F000920119951F910F91FF90EF90DF90CF9063
:10310000BF90AF909F908F907F906F905F904F9007
:103110000895CF92DF92EF92FF920F931F93DC01FD
:103120006B017801ED91FC918A0101501040020F72
:10313000131F0680F781E02D960119951F910F91BD
:10314000FF90EF90DF90CF900895CF92DF92EF92B3
:10315000FF920F931F93DC016A01C9017801ED9181
:10316000FC9111979B0121503040280F391F068098
:10317000F781E02DCD01860119951F910F91FF90E8
:10318000EF90DF90CF9008956F927F928F929F92F1
:10319000AF92BF92CF92DF92EF92FF920F931F9365
:1031A000CF93DF935C013A0169014801EB01C60E40
:1031B000D71E0DC0D501ED91FC910084F185E02D65
:1031C000C501BE01A3019401870119952196CC1573
:1031D000DD0584F3DF91CF911F910F91FF90EF9068
:1031E000DF90CF90BF90AF909F908F907F906F9027
:1031F0000895EF92FF920F931F93FC017B01A08132
:10320000B18120853185028513851E960D90BC9174
:10321000A02D60E070E040E050E0FD0119951F91A5
:103220000F91FF90EF9008952F923F924F925F92EF
:103230006F927F928F929F92AF92BF92CF92DF92C6
:10324000EF92FF920F931F93DF93CF93CDB7DEB72B
:103250002F970FB6F894DEBF0FBECDBF5C015E8323
:103260004D8318870F83FA86E986CB86DC01189692
:103270008D919C911997681779070CF0A4C01A9644
:103280008D919C911B97481759070CF09CC0EC2D11
:10329000F0E0FF87EE87CF01880F991F8E0F9F1FE9
:1032A000880F991F860F971F181619060CF08BC0F0
:1032B000CF01F3E0880F991FFA95E1F7840F951F6E
:1032C000181619060CF07FC085E0289FA001112474
:1032D0005A8349832B011B011C825C81553011F4F8
:1032E00080E005C0E981FA81EC5FFD4F84912C8676
:1032F0003D866D807E8043011B82C82EDD2480FFC9
:103300001CC0D501ED91FC91BB85B13049F404801E
:10331000F581E02DC501B201A3012F81388522C0BE
:103320000684F785E02DC5016C857D85A4012E8579
:103330003F858901EF80F88423C0E985FA852F81D4
:103340003885E217F307E9F0D501ED91FC91BB85D3
:10335000B13051F40480F581E02DC501B201A30123
:1033600029853A8519950DC00684F785E02DC5019C
:103370006C857D85A4012E853F858901E984FA84C9
:103380001995EB81EF5FEB832E853F85820E931EAF
:103390000894611C711CE83021F0D594C7948C2DE1
:1033A000ACCF3C813F5F3C834E855F85240E351E4C
:1033B0000894411C511C89819A8101969A838983C2
:1033C000363009F08ACF2F960FB6F894DEBF0FBEC5
:1033D000CDBFCF91DF911F910F91FF90EF90DF90C4
:1033E000CF90BF90AF909F908F907F906F905F90A5
:1033F0004F903F902F900895CF92EF92FF920F93AE
:103400001F93CF93DF93EC01262F6A3061F42C8950
:1034100030E003E0220F331F0A95E1F78E859F8588
:10342000820F931F37C06D30C9F16C857D854E8545
:103430005F8508891989EA88FB88CC880E9414195D
:103440002C8986E0289FB00111248C859D85680F0A
:10345000791F7D876C878E89882301F1422F50E088
:103460008AEF9FEF9C01429FC001439F900D529FA6
:10347000900D112428853985820F931F8617970791
:103480006CF413E0440F551F1A95E1F78E859F8564
:10349000840F951F9F878E871D861C8681E090E094
:1034A000DF91CF911F910F91FF90EF90CF900895F2
:1034B000FC0175876487578746870895FC01718BE7
:1034C000608B538B428B0895FC01668B08950895A1
:1034D000DC0158968C915897882329F06EBD0DB465
:1034E00007FEFDCF089530E840E050E070E0832F04
:1034F00090E0862397235996ED91FC915A979696E2
:103500002C919697892B21F08081822B808304C097
:1035100080812095282320835B96ED91FC915C9718
:10352000808197969C919797892B80835B96ED91EC
:10353000FC915C97908197968C91979780958923C1
:10354000808336954F5F5F4F4830510581F608956F
:103550000F931F938C01DC015F96ED91FC91909786
:10356000908199968C9199978095892380835D9617
:10357000ED91FC915E97908198968C91809589232E
:103580008083C8010E94681AD8015D96ED91FC9174
:103590005E97808198969C91892B80831F910F91D3
:1035A00008950F931F938C01DC015F96ED91FC91C0
:1035B0009097808199969C919997892B80835D96AD
:1035C000ED91FC915E97908198968C9180958923DE
:1035D0008083C8010E94681AD8015D96ED91FC9124
:1035E0005E97808198969C91892B80831F910F9183
:1035F0000895CF92DF92EF92FF920F931F937C0179
:10360000162FC42ED22E6AE20E94A81AC70160E0CB
:103610000E94D11AF70162A5610FC7010E94D11A59
:10362000C70160E00E94D11AF70162A56D0DC701C4
:103630000E94D11AC7016BE20E94A81AC70160E07C
:103640000E94D11AF70163A56C0DC7010E94D11A1F
:10365000C70160E00E94D11AF70163A5600FC7019E
:103660000E94D11AC7016CE20E94A81A1F910F9103
:10367000FF90EF90DF90CF900895FF920F931F93EC
:103680008C01F62E672FDC015F96ED91FC919097EF
:10369000808199969C919997892B80835D96ED9175
:1036A000FC915E97908198968C9180958923808378
:1036B000C8010E94681AC8016F2D0E94681AD801BB
:1036C0005D96ED91FC915E97808198969C91892BF7
:1036D00080831F910F91FF900895FF920F931F9386
:1036E000CF93DF93EC01F22E132F77FD2EC0888548
:1036F0009985681779074CF557FD27C08A859B8502
:103700004817590714F5262F2F5F042F0F5FCE019E
:103710000E94F91AEF8DF8A1808199A5892B8083E9
:10372000ED8DFE8D908188A5809589238083CE01C3
:10373000612F0E94681ACE016F2D0E94681AED8DCC
:10374000FE8D808198A5892B8083DF91CF911F9179
:103750000F91FF900895DF92EF92FF920F931F93C6
:10376000CF93DF93EC01FB017901D02E88859985F9
:1037700068177907D4F52A853B8542175307ACF5BE
:10378000C701840F951F281739071CF47901E41A23
:10379000F50A042F01500E0DCE016E2F2E2F0E9420
:1037A000F91AEF8DF8A1808199A5892B8083ED8D81
:1037B000FE8D908188A580958923808308C0CE01E5
:1037C000612F0E94681ACE016D2D0E94681A08941C
:1037D000E108F1088FEFE8168FEFF80681F7ED8D1D
:1037E000FE8D808198A5892B8083DF91CF911F91D9
:1037F0000F91FF90EF90DF900895DF92EF92FF928C
:103800000F931F93CF93DF93EC01FA017901D02E30
:103810002885398562177307D4F58A859B854817F3
:103820005907ACF5C701860F971F281739071CF4F5
:103830007901E61AF70A262F21502E0DCE014E2FC0
:103840000E2F0E94F91AEF8DF8A1808199A5892B7E
:103850008083ED8DFE8D908188A58095892380835E
:1038600008C0CE01612F0E94681ACE016D2D0E9402
:10387000681A0894E108F1088FEFE8168FEFF80650
:1038800081F7ED8DFE8D808198A5892B8083DF9156
:10389000CF911F910F91FF90EF90DF900895EF92DD
:1038A000FF920F931F93FC017B01A081B1812085C2
:1038B0003185028513851E960D90BC91A02D60E088
:1038C00070E040E050E0FD0119951F910F91FF90CD
:1038D000EF900895AF92BF92CF92DF92EF92FF9256
:1038E0000F931F93CF93DF936C015901E801DC0123
:1038F00018962D913C911997621773070CF057C0D9
:103900001A96ED91FC911B974E175F070CF04FC074
:10391000C501860F971F281739071CF45901A61AED
:10392000B70ACE01840F951FE817F9071CF4EF01C1
:10393000C41BD50B262F21502A0D042F01500C0F2C
:10394000C6010E94F91AD6015F96ED91FC919097FD
:10395000808199969C919997892B80835D96ED91B2
:10396000FC915E97908198968C91809589238083B5
:103970008E010EC0C6016F2D0E94681AC6016E2D01
:103980000E94681A21971C161D06A4F301501040CE
:103990001016110614F4E501F6CFD6015D96ED91EF
:1039A000FC915E97808198969C91892B8083DF9112
:1039B000CF911F910F91FF90EF90DF90CF90BF902C
:1039C000AF900895662311F460E201C061E20E94A5
:1039D000A81A0895AF92BF92CF92DF92EF92FF9212
:1039E0000F931F93CF93DF935C01FB01EB012196B3
:1039F000D49031C08E010F5F1F4FFE016491C5014D
:103A00000E94A81A78010894E11CF11CF801C490E6
:103A10000C2D0F77E701102F08C0FE012196E491CD
:103A2000C5016E2F0E94D11A11501123B1F7E70181
:103A3000C00FD11DC7FE0EC0FE018491682F70E03B
:103A40006F3F710511F464EF71E0219680E090E022
:103A50000E94E00FDA94DD2069F6DF91CF911F918B
:103A60000F91FF90EF90DF90CF90BF90AF900895AF
:103A70000F931F93CF93DF93EC018B011BA61AA624
:103A80008AA161E00E949B1089A161E00E949B10C5
:103A9000E9A14E2F50E0FA01EE5CFE4FE491F0E018
:103AA000EE0FFF1FE250FF4F859194919E8F8D8FF7
:103AB000EAA12E2F30E0F901EE5CFE4FE491F0E038
:103AC000EE0FFF1FE250FF4F8591949198A38F8FC7
:103AD00048585E4FFA01849188A728583E4FF90153
:103AE000849189A7888D882361F00E94AB3280E0A1
:103AF0000E949A3281E00E948C3280E00E949532CE
:103B00003DC08DA161E00E949B108CA161E00E94EC
:103B10009B10EDA14E2F50E0FA01EE5CFE4FE491B8
:103B2000F0E0EE0FFF1FE250FF4FA591B491BC8F64
:103B3000AB8FECA12E2F30E0F901EE5CFE4FE4914B
:103B4000F0E0EE0FFF1FE250FF4F859194919A8FA6
:103B5000898F48585E4FFA0194919FA328583E4F91
:103B6000F90184918EA38C91909598239C93E98D73
:103B7000FA8D90818EA1809589238083ED8DFE8DB5
:103B8000908188A58095892380838BA1882309F162
:103B900061E00E949B108BA161E00E944E1164EFD6
:103BA00071E080E090E00E94E00F8BA160E00E9455
:103BB0004E1164EF71E080E090E00E94E00F8BA175
:103BC00061E00E944E1164EF71E080E090E00E949D
:103BD000E00F0115110521F0CE01B8010E94EA1C89
:103BE000DF91CF911F910F9108951F93CF93DF9392
:103BF000EC01162F6FEF76E00E94381D112351F46F
:103C0000CE016AE377E00E94EA1C82E08AA781E0A5
:103C10008BA705C0CE0167E477E00E94EA1CCE01C5
:103C200064E577E00E94EA1C123041F4CE0166E3BD
:103C30000E94A81ACE0160EC0E94D11A1F8BDF915E
:103C4000CF911F910895DF92EF92FF920F931F93F0
:103C50008C01F62EE42ED22E60E870E040EA50E0AF
:103C60000E946B178CE193E0F80191838083F1A2AD
:103C7000E2A2D3A281E0808F15A214A21F910F911E
:103C8000FF90EF90DF900895FC011382128288EE7E
:103C900093E0A0E0B0E084839583A683B78384E3B8
:103CA00093E091838083128E118E14860895FC0117
:103CB00084E393E0918380830895FC01A18DB28D0C
:103CC000109719F420E030E009C0ED91FC911197B4
:103CD0000190F081E02DCD0119959C01C901089555
:103CE000DC015996ED91FC915A97309719F420E038
:103CF00030E018C0248935894689578983859485A1
:103D0000A585B685281B390B4A0B5B0B2030B0E824
:103D10003B07B0E04B07B0E05B0720F02FEF3FE739
:103D200040E050E0C9010895DC015996ED91FC9105
:103D30005A97309711F480E008958681811181E0CF
:103D40000895CF93DF93EC01898D9A8D009741F010
:103D50000E946C27898D9A8D0E9467331A8E198E66
:103D6000DF91CF910895FC01818D928D009711F420
:103D700080E008950E945C260895FC01818D928D5B
:103D8000009711F00E9422270895FC01818D928DE9
:103D9000009719F420E030E003C00E9443289C0102
:103DA000C9010895DF93CF930F92CDB7DEB7FC0121
:103DB000818D928D009749F0BE016F5F7F4F41E08A
:103DC00050E00E944328019719F02FEF3FEF03C006
:103DD0008981282F30E0C9010F90CF91DF9108959C
:103DE000EF92FF920F931F93DF93CF930F92CDB774
:103DF000DEB77C01DC0159968D919C915A97009712
:103E000019F400E010E01FC0BE016F5F7F4F41E07A
:103E100050E00E944328019719F00FEF1FEF13C0E5
:103E20008981082F10E0D7015996ED91FC915A979E
:103E3000438554856585768541505040604070408B
:103E4000CF010E945C26C8010F90CF91DF911F9196
:103E50000F91FF90EF900895FC01818D928D009756
:103E600019F420E030E003C00E94882A9C01C901B7
:103E70000895FC01818D928D009719F420E030E0C7
:103E800003C00E94402C9C01C9010895EF92FF924B
:103E90000F931F93CF93DF93EC01F62EE72E8A0149
:103EA0001B821A8288EE93E0A0E0B0E08C839D83B1
:103EB000AE83BF8384E393E0998388838EE190E0AF
:103EC0000E94CA329A8F898F009791F0DC018F2D62
:103ED0009E2D9C01F9018EE101900D928150E1F738
:103EE000CE010C96B8014CE050E00E942134188EAF
:103EF000DF91CF911F910F91FF90EF90089582E095
:103F000090E0A0E0B0E080936E1D90936F1DA093B1
:103F1000701DB093711D1092851D10928F1D10920F
:103F20008E1D86E493E090938D1D80938C1D1092DE
:103F3000921D1092AF1D1092B01D1092B31D1092E1
:103F4000B51D08952F923F924F925F926F927F928C
:103F50008F929F92AF92BF92CF92DF92EF92FF9299
:103F60000F931F93DF93CF93CDB7DEB7C954D040E3
:103F70000FB6F894DEBF0FBECDBF582E492EFB0101
:103F80003A01190180A191A1998B888B26E433E035
:103F90003F872E8782A18A8B83A18B8B84A18C8BF8
:103FA00085A196A1A7A1B0A58D8B9E8BAF8BB88F55
:103FB00081A592A5A3A5B4A5898F9A8FAB8FBC8F3D
:103FC00085A596A5A7A5B0A98D8F9E8FAF8FB8A305
:103FD00081A989A382A993A9A4A9B5A98AA39BA30E
:103FE000ACA3BDA386A997A9A0ADB1AD8EA39FA395
:103FF000A8A7B9A782AD93AD9BA78AA71FA61EA6A7
:104000003DA72CA71AAA7A018E01025F1F4F3CE23E
:10401000A32EB12CAC0EBD1E4E010894811C911C28
:1040200035C0D7018C918F3221F40894E11CF11C2A
:104030002DC0422F4E194D3008F04CE0C42EDD2427
:10404000C401B701A6010E942134F401EC0DFD1D4D
:104050001082C5010E946C27C501B801A40121E0AE
:104060000E94C02C882351F4E52DF42D1382128276
:1040700086E493E09183808316826AC0EC0CFD1C79
:10408000C8010E946C27C50158018C01C7016FE26D
:1040900070E00E940F349C01009719F6E618F708AB
:1040A000F101F182E082E52DF42DD80112968D9177
:1040B0009C9113979383828386E493E0918380831A
:1040C00014968C911497848315968C9115978583FB
:1040D00016968C911697868317962D913D914D914A
:1040E0005C911A9727833087418752871B962D91C1
:1040F0003D914D915C911E97238734874587568764
:104100001F962D913D914D915C9152972787308B51
:10411000418B528B53968C915397838B54962D9150
:104120003D914D915C915797248B358B468B578BE6
:1041300058962D913D914D915C915B97208F318FD9
:10414000428F538F5C968D919C915D97958F848F54
:10415000852D942DC75BDF4F0FB6F894DEBF0FBEE1
:10416000CDBFCF91DF911F910F91FF90EF90DF9026
:10417000CF90BF90AF909F908F907F906F905F9007
:104180004F903F902F9008959F92AF92BF92CF9201
:10419000DF92EF92FF920F931F93DF93CF93CDB7F0
:1041A000DEB7CA57D0400FB6F894DEBF0FBECDBF02
:1041B000C82E992E8A01D22E43E0A42EB12CAC0E2B
:1041C000BD1EC501A8019E012F5F3F4F0E94A21F87
:1041D000E980FA80E00EF11EF701808146E453E0A9
:1041E0002985882309F041C08D819E819CA38BA3E2
:1041F0005AA349A38F818DA388858EA32FA38A8577
:104200009B85AC85BD8588A799A7AAA7BBA78E85E6
:104210009F85A889B9898CA79DA7AEA7BFA78A89C2
:104220009B89AC89BD8988AB99ABAAABBBAB8E89A6
:104230008CAB8F89988DA98DBA8D8DAB9EABAFABB2
:10424000B8AF8B8D9C8DAD8DBE8D89AF9AAFABAF66
:10425000BCAF8F8D98A19EAF8DAF8C2D992DBE01D7
:104260006F5D7F4F4DEB52E0AAC0FE01EF5BFF4F49
:1042700011821082DE01DF9611965C934E93FE014F
:10428000EB5BFF4F10822223A9F02250223050F422
:10429000CD016CE87DE1A7012D2D0E94C02C882363
:1042A00089F408C0CD01B501A7012D2D0E94C02CB5
:1042B000882329F48C2D992D0E94441E82C0C501AB
:1042C0000E946C27F6E0DF2259F0FE01ED5AFF4F05
:1042D0004081518162817381CE01CF960E945C261C
:1042E0009E01235A3F4FFE01EF5BFF4F808191817A
:1042F000F9019383828386E493E091838083FE01B6
:10430000ED5BFF4F8081F9018483FE01EC5BFF4F81
:104310008081F9018583FE01EB5BFF4F8081F9010C
:104320008683FE01EA5BFF4F80819181A281B38188
:10433000F90187839087A187B287FE01E65BFF4F73
:1043400080819181A281B381F90183879487A587B8
:10435000B687FE01E25BFF4F80819181A281B3812C
:10436000F9018787908BA18BB28BFE01EE5AFF4F2C
:104370008081F901838BFE01ED5AFF4F808191818D
:10438000A281B381F901848B958BA68BB78BFE013B
:10439000E95AFF4F80819181A281B381F901808F19
:1043A000918FA28FB38FFE01E55AFF4F80819181DB
:1043B000F901958F848F8C2D992DB901A7010E9449
:1043C000461F8C2D992DC658DF4F0FB6F894DEBFCF
:1043D0000FBECDBFCF91DF911F910F91FF90EF9056
:1043E000DF90CF90BF90AF909F900895CF92DF92D3
:1043F000EF920F93CF93DF93EC01362F542F722F50
:10440000E02E6CE3C62ED12CC80ED91EC60161E089
:10441000432F252F072F0E94E4248823D1F00C2F4F
:10442000ED2ECE01B60141E00E94612E882339F4C1
:10443000CE01B60140E00E94612E882351F0CE01EA
:104440004E96602F7E2D0E94A229882319F081E0CC
:1044500001C080E0DF91CF910F91EF90DF90CF907E
:104460000895382F8091B91D8F3F29F43EBD0DB4BA
:1044700007FEFDCF0895F894A091BA1DB091BB1D21
:104480005091BC1D252F2095E091BD1DF091BE1DC2
:104490004091BF1D642F609590E08C9182238C9396
:1044A00037FF03C08081842B02C0808186238083F4
:1044B0008C91852B8C939F5F983011F0330FEDCF4B
:1044C00000000000000000008C9128232C937894B9
:1044D00008958091B91D8F3F21F40E9431222EB59D
:1044E00030C0F894E091BD1DF091BE1D8081909187
:1044F000BF1D892B8083E091BA1DF091BB1D609197
:10450000BC1DA091C01DB091C11D8091C21D482F3E
:1045100050E0762F709520E030E08081862B8083FC
:10452000220F8C9190E084239523892B09F0216040
:10453000808187238083000000003F5F383069F767
:104540007894822F0895FC01673020F086E18583FE
:1045500080E00895262F30E060FD02C0663019F437
:104560008DB58E7F02C08DB581608DBD8CB58C7F81
:104570008CBD4CB522FD02C090E001C092E03695A2
:104580002795822F8170842B892B8CBD81E0089523
:104590000F931F93CF93DF938B010E94D20FEB01F8
:1045A0000E9469228F3F11F481E008C00E94D20F5F
:1045B0006C1B7D0B6017710798F380E0DF91CF9142
:1045C0001F910F910895FC01848160E00E944E11BB
:1045D0000895FC01848161E00E944E110895CF92FC
:1045E000DF92EF92FF920F931F93CF93DF937C01A3
:1045F0006A01FC018485882319F40FEF1FEF30C096
:1046000000E010E040E050E0212F332727FD3A95ED
:10461000F601E40FF51F808190E0282739273070DC
:10462000C901F4E095958795FA95E1F782279327DC
:10463000102F0027082719279C01322F2227329597
:10464000307F0227132725E0880F991F2A95E1F76D
:10465000082719274F5F5F4FF2E040305F07A1F650
:10466000862F0E943122C0E0D0E0F601EC0FFD1F42
:1046700080810E943122219682E0C030D807A9F7BC
:10468000812F992787FD9A950E943122802F0E94C1
:1046900031220E946922F70182878F71853011F4DF
:1046A00081E007C081E1F7018583C7010E94E9220B
:1046B00080E0DF91CF911F910F91FF90EF90DF90FD
:1046C000CF9008950F931F93CF93DF93EC010E9437
:1046D000D20F8B0109C00E94D20F601B710B6D526B
:1046E000714010F08FE00AC00E9469228A878F3FD4
:1046F00091F38E3F11F481E006C08DE08D83CE01F1
:104700000E94E92280E0DF91CF911F910F910895DF
:10471000CF93DF93EC018E81882319F40FC00E94A0
:1047200069228F819885019698878F83019782509F
:104730009240A8F3CE010E94E9221E82DF91CF9120
:104740000895DF92EF92FF920F931F93CF93DF9321
:10475000EC01D62E79018A010E948823CE010E94A5
:10476000E322CE016CE271E00E94C8228D2D8064AC
:104770000E943122812F9927AA27BB270E9431222C
:10478000C801AA27BB270E943122BB27A12F902F47
:104790008F2D0E9431228E2D0E943122DD2011F4B6
:1047A00085E906C088E0D81611F487E801C08FEFCC
:1047B0000E94312210E00E9469228A8787FF02C08E
:1047C0001150C9F7DF91CF911F910F91FF90EF909A
:1047D000DF900895CF92DF92EF92FF920F931F9395
:1047E000CF93DF93EC017A018B01690141155105EB
:1047F0006105710511F482E133C08B85833039F096
:1048000039E0EE0CFF1C001F111F3A95D1F7CE01C5
:1048100068E1A80197010E94A123882311F084E098
:104820001FC0CE016EEFA6010E94EF228823C9F0BF
:10483000CE0168E572E00E94C822882311F485E168
:104840000FC0CE016DE020E030E040E050E00E947B
:10485000A123882321F40E946922882379F084E12E
:104860008D83CE010E94E92280E0DF91CF911F91DC
:104870000F91FF90EF90DF90CF900895CE010E94AE
:10488000E92281E0F2CF6F927F928F929F92AF9256
:10489000BF92CF92DF92EF92FF920F931F93CF932D
:1048A000DF93EC015A016B01390148010115110533
:1048B00009F46AC0C801820F931F8150924008F02A
:1048C0005EC08E81882371F088819981AA81BB8125
:1048D000481759076A077B0729F48F81988568165E
:1048E000790650F5A882B982CA82DB828B85833033
:1048F00039F0E9E0AA0CBB1CCC1CDD1CEA95D1F711
:10490000CE0161E1A60195010E94A123882319F03F
:1049100083E08D8334C0CE010E946223882379F125
:1049200018861F8281E08E8307C00E9469228F81D2
:104930009885019698878F838F819885861597052E
:10494000A0F300E010E008C00E946922F701E00F28
:10495000F11F80830F5F1F4F08151905A8F32F81E2
:104960003885280D391D38872F838985882319F0CC
:104970002050324048F0CE010E94882305C0CE016D
:104980000E94E92280E001C081E0DF91CF911F9178
:104990000F91FF90EF90DF90CF90BF90AF909F90DE
:1049A0008F907F906F900895EF92FF920F931F93D7
:1049B000790120E030E000E012E00E9443241F91E2
:1049C0000F91FF90EF900895BF92CF92DF92EF92F8
:1049D000FF920F931F93CF93DF93EC01B62E1E2D02
:1049E0001B8619861E821D821C864C832093C31D44
:1049F0000093C41DE092B91D0E94D20F6B018C81FF
:104A000061E00E949B10CE010E94E9221F3F09F441
:104A100061C08091C41D60E00E949B108091C31D05
:104A200061E00E949B108091B91D61E00E949B1083
:104A3000E091B91D2E2F332727FD3095F901EE5C4B
:104A4000FE4FE491F0E0EE0FFF1FE250FF4F859123
:104A500094919093BB1D8093BA1D28583E4FF90145
:104A600084918093BC1DE091C31D2E2F332727FD19
:104A70003095F901EE5CFE4FE491F0E0EE0FFF1F80
:104A8000E250FF4F859194919093BE1D8093BD1D80
:104A900028583E4FF90184918093BF1DE091C41DB9
:104AA0002E2F332727FD3095F901EE5CFE4FE49160
:104AB000F0E0EE0FFF1FE85EFE4F8591949190931A
:104AC000C11D8093C01D28583E4FF90184918093E9
:104AD000C21D19C082E360E00E949B1083E361E085
:104AE0000E949B1084E361E00E949B1085E361E0DB
:104AF0000E949B1085E361E00E944E1183E58CBD0E
:104B00008DB58E7F8DBD10E08FEF0E9431221F5F2B
:104B10001A30D1F7CE010E94E32209C00E94D20FC1
:104B20006C197D09615D774010F081E05AC0CE01BB
:104B300060E020E030E040E050E00E94A123182F28
:104B40008A87813059F7CE0168E02AEA31E040E0F7
:104B500050E00E94A12382FF02C01B870DC010E01D
:104B60000E9469228A871F5F1430D1F78A3A11F0B8
:104B700082E037C082E08B878B85823021F0EE2483
:104B8000FF2487010FC0E12CF12C012DB0E41B2F75
:104B900009C00E94D20F6C197D09615D774010F049
:104BA00088E01FC0CE0167E320E030E040E050E045
:104BB0000E94A123CE0169E2A80197010E94A123CE
:104BC0008A87882331F78B858230F1F4CE016AE33E
:104BD00020E030E040E050E00E94A123882339F03B
:104BE00086E08D83CE010E94E92280E01AC00E94F7
:104BF0006922807C803C11F483E08B870E946922CB
:104C00000E9469220E946922CE010E94E9228091BD
:104C1000B91D8F3F11F081E004C0CE016B2D0E94C1
:104C2000A322DF91CF911F910F91FF90EF90DF9022
:104C3000CF90BF900895CF93DF93EC01DB0180E02C
:104C400090E020E2FD01E80FF91F208301968B30F0
:104C50009105C1F757E040E021C02E3219F086EEF1
:104C600097E007C05A3019F15AE048E017C03217F0
:104C7000F1F0FC01019634913323C9F75417B8F0D1
:104C80002132A8F02F3798F4822F81568A3108F408
:104C90002052FD01E40FF11D20834F5F2991222353
:104CA000E1F690E08C91803219F091E001C090E043
:104CB000892FDF91CF9108956F927F928F929F926B
:104CC000AF92BF92CF92DF92EF92FF920F931F931A
:104CD000CF93DF93EC017A018B012E81222309F41B
:104CE00080C08C899D89AE89BF8984179507A607E6
:104CF000B70708F476C085C0E114F1040105110579
:104D000049F41F82188619861A861B861C861D8602
:104D10001E8665C02B853C854D855E85EC8DFD8DA1
:104D2000858590E00996215030404040504039013F
:104D30004A01082E04C096948794779467940A9445
:104D4000D2F72F5F3F4F4F4F5F4F0894E108F108B4
:104D5000010911095701680104C0D694C794B7949A
:104D6000A7948A95D2F70894E11CF11C011D111D2E
:104D7000A614B704C804D90428F02115310541054B
:104D8000510549F4888D998DAA8DBB8D8F839887A5
:104D9000A987BA8716C0A618B708C808D90811C0CD
:104DA0004F81588569857A858C8D9D8D94010E94EF
:104DB00042300894A108B108C108D108882331F411
:104DC00010C087E0882E912C8C0E9D1EA114B1047A
:104DD000C104D10429F7EB86FC860D871E8781E08C
:104DE00001C080E0DF91CF911F910F91FF90EF9074
:104DF000DF90CF90BF90AF909F908F907F906F90FB
:104E00000895223009F078CFE6CFCF93DF93EC01FD
:104E1000462F6F85788989899A890E94262E882352
:104E200019F420E030E00AC08B89282F30E095E0AB
:104E3000220F331F9A95E1F72953324EC901DF91B2
:104E4000CF9108950F931F93CF93DF938C01FC01B3
:104E500086818823D9F1858187FF35C0C80161E04B
:104E60000E940527EC01009789F1F80186818230C4
:104E700040F484899589A689B7898C8F9D8FAE8FE0
:104E8000BF8FF801808D918D9B8F8A8F808D918D42
:104E9000A28DB38DCD01AA27BB279D8B8C8BE09172
:104EA000C51DF091C61D309751F0BE016A5E7F4F5F
:104EB000CE0148961995888D998D9B8B8A8BF80128
:104EC00085818F7785830E94C72D01C080E0DF91A7
:104ED000CF911F910F910895CF93DF93EC010E9422
:104EE0002227882311F01E8281E0DF91CF9108955F
:104EF0006F927F928F929F92AF92BF92CF92DF92EA
:104F0000EF92FF920F931F93DF93CF9300D00F92F6
:104F1000CDB7DEB77C015A016B01DC0116968C918E
:104F20001697813009F08FC015968C9181FF8BC048
:104F30009EC00097A105B10511F481E085C0F7017D
:104F40006384748485849684C701B601A5010E9498
:104F50005C26882309F477C0D7015C968D919C91DB
:104F60005D97A114B104C104D10489F458964D9100
:104F70005D916D917C915B970E94B530882309F417
:104F800062C0F701108E118E128E138E3DC0D701B4
:104F900017964D915D916D917C911A979E012F5FAF
:104FA0003F4F0E944230882309F44DC0D7015C96E0
:104FB000ED91FC915D9749815A816B817C81878954
:104FC000803129F088EF9FEFAFEFBFE004C088EF9A
:104FD0009FEFA0E0B0E0481759076A077B07A0F4ED
:104FE000CF010E94B530882371F1F70147815085C8
:104FF00061857285848D958D0FEF1FEF2FEF3FE058
:105000000E94A62F8823F9F0D7015496AD92BD9245
:10501000CD92DC92579715968C91159780681596CE
:105020008C93C7010E942227882369F0B601A5014D
:105030006A147B048C049D0410F4B401A301C7011D
:105040000E945C2601C080E00F900F900F900F909F
:10505000CF91DF911F910F91FF90EF90DF90CF9054
:10506000BF90AF909F908F907F906F900895F701C1
:1050700084899589A689B78984179507A607B707F4
:1050800008F057CFE0CF2F923F924F925F926F92EE
:105090007F928F929F92AF92BF92CF92DF92EF92C8
:1050A000FF920F931F93CF93DF93EC012A018E8120
:1050B000882309F4C6C08D8180FFC3C0D8C02501F4
:1050C0004E185F084B0177E0272E312C2C0E3D1E29
:1050D0003201B1C02B853C854D855E856FEFA62ED4
:1050E00061E0B62EA222B3228E8179018A0199E075
:1050F00016950795F794E7949A95D1F7EC8DFD8D69
:10510000823049F4428D538D648D758D4E0D5F1D37
:10511000601F711F3FC0D480DA94DE20A114B10457
:10512000D9F4DD20C9F4211531054105510549F4B3
:10513000888D998DAA8DBB8D8F839887A987BA8713
:105140000BC04F81588569857A85CF0191010E94F6
:105150004230882309F475C0EC8DFD8D4F81588550
:1051600069857A854250504060407040058404C093
:10517000440F551F661F771F0A94D2F786859785BF
:10518000A089B189480F591F6A1F7B1F4D0D511D02
:10519000611D711D80E092E08A199B0963018615EB
:1051A000970508F46C018D8186FD06C080E0C81665
:1051B00082E0D80609F073C08091EC029091ED0274
:1051C000A091EE02B091EF02481759076A077B07DA
:1051D00009F465C08091C71F9091C81F9501860191
:1051E00074010E944324882361F18C0C9D1C12C021
:1051F00095012953324EA9014C0D5D1DD401F901D1
:1052000002C081918D93E417F507D9F7E21BF30BE8
:105210008E0E9F1E960140E050E08B859C85AD85EB
:10522000BE85820F931FA41FB51F8B879C87AD87F8
:10523000BE876C187D086114710409F04BCFA20180
:1052400002C04FEF5FEFCA01DF91CF911F910F9125
:10525000FF90EF90DF90CF90BF90AF909F908F9096
:105260007F906F905F904F903F902F900895AC8803
:10527000BD88CE88DF88EB84FC840D851E859A016D
:1052800040E050E0D601C5018E199F09A00BB10B7B
:1052900082179307A407B50708F411CF13CFCB01EA
:1052A000BA0140E00E94262E882309F0A1CFC9CF81
:1052B000CF92DF92EF92FF920F931F93DF93CF93E2
:1052C0000F92CDB7DEB76C01FC018681823070F0A1
:1052D000E384F48405851685C601BE016F5F7F4FA8
:1052E00041E050E00E944328019769F020E030E05F
:1052F000C9010F90CF91DF911F910F91FF90EF9017
:10530000DF90CF900895F60183859485A585B685B5
:105310004F96A11DB11D83879487A587B687F5E0B9
:1053200016950795F794E794FA95D1F78E2D8F701F
:10533000282F30E0E5E0220F331FEA95E1F72953EB
:10534000324ED6CF0F931F93CF93DF93EC018B0197
:105350008E81882309F041C0FB0187898031B1F437
:1053600082E08E83188E198E1A8E1B8E808D918D01
:10537000A0E0B0E045E0880F991FAA1FBB1F4A9527
:10538000D1F78C8B9D8BAE8BBF8B15C0803229F5EE
:1053900083E08E83FB01428D538D648D758D488F24
:1053A000598F6A8F7B8F9E012C5E3F4FC8010E94F0
:1053B0000E31882391F01D8F0C8F81E08D831F8229
:1053C000188619861A861B861C861D861E861F86D1
:1053D000188A198A1A8A1B8A01C080E0DF91CF914E
:1053E0001F910F9108951F93CF93DF93EC01142F1A
:1053F000E62FF0E075E0EE0FFF1F7A95E1F7E95335
:10540000F24E8385817121F0842F827409F054C09B
:105410006B8B8091EC029091ED02A091EE02B09125
:10542000EF028F87988BA98BBA8B84899589A0E02E
:10543000B0E0BC0155274427828D938DA0E0B0E0F9
:10544000482B592B6A2B7B2B488F598F6A8F7B8F68
:10545000838590E088719070009751F4848D958DCC
:10546000A68DB78D8C8B9D8BAE8BBF8B81E00CC0D6
:10547000409711F59E012C5E3F4F8C8D9D8D0E94B3
:105480000E318823C9F084E08E83812F8F708D8345
:105490001F82188619861A861B861C861D861E8604
:1054A00016FD02C081E009C0CE0140E050E060E09E
:1054B00070E00E94782701C080E0DF91CF911F91BA
:1054C0000895CF93DF93EC019C01295F3F4F8C8DB2
:1054D0009D8D41E050E060E070E00E947D318823C6
:1054E000A1F0888D998DAA8DBB8D0097A105B1057E
:1054F00059F48F819885A985BA85888F998FAA8F4D
:10550000BB8F8D8180688D8381E0DF91CF9108957D
:105510002F923F924F925F927F928F929F92AF9283
:10552000BF92CF92DF92EF92FF920F931F93DF9380
:10553000CF9300D000D0CDB7DEB76C01162F072F68
:105540005E834D83DC0116968C911697813009F0AD
:1055500072C115968C9181FF6EC18FC1F60144898D
:1055600055896689778983859485A585B68584174D
:105570009507A607B70731F0C6010E945C2688236D
:1055800009F459C1812F902F9C0129012D803E8063
:1055900019C1D6015C96ED91FC915D97DA01C901C4
:1055A00019E0B695A795979587951A95D1F77480C8
:1055B0007A9478227FEF872E71E0972E82229322B1
:1055C000772009F050C08114910409F04CC0D60135
:1055D00017964D915D916D917C911A9741155105EA
:1055E0006105710581F458968D919D910D90BC9146
:1055F000A02D0097A105B10559F1F6018783908789
:10560000A187B28730C0CF019E012F5F3F4F0E941C
:105610004230882319F41E821D8215C129813A81E6
:105620004B815C81D6015C96ED91FC915D978789F9
:10563000803129F088EF9FEFAFEFBFE004C088EF23
:105640009FEFA0E0B0E0281739074A075B0730F06A
:10565000C6010E94612A882331F4EDC0F601278338
:1056600030874187528780E092E08819990951017B
:105670008215930508F45C01D6015C96ED91FC91CE
:105680005D971796ED90FD900D911C911A978EEFF6
:105690009FEFAFEFBFEFE80EF91E0A1F1B1F058437
:1056A00004C0EE0CFF1C001F111F0A94D2F7868560
:1056B0009785A089B189E80EF91E0A1F1B1FE70C08
:1056C000F11C011D111D90E0A91692E0B90651F5DB
:1056D0008091EC029091ED02A091EE02B091EF0268
:1056E0008E159F05A007B10761F48FEF9FEFAFEF15
:1056F000BFEF8093EC029093ED02A093EE02B09383
:10570000EF028091C71F9091C81FB801A7019201B5
:105710000E94EA23882309F48EC0A0E0B2E04A0E7A
:105720005B1E3EC08114910409F5F6012385348582
:105730004585568584899589A689B78928173907AB
:105740004A075B0798F00E94C72D882309F473C0AD
:10575000E092EC02F092ED020093EE021093EF0261
:105760008091C91F81608093C91F08C0C801B7011B
:1057700041E00E94262E882309F45DC0940129533C
:10578000324EA9014A0D5B1DD201F90102C08D9173
:105790008193E417F507D9F7E21BF30B4E0E5F1E5A
:1057A0002A183B08950140E050E0F6018385948576
:1057B000A585B685820F931FA41FB51F8387948785
:1057C000A587B687D6011B962D913D914D915C9191
:1057D0001E972114310409F0DCCE54968D919D91D1
:1057E0000D90BC91A02D82179307A407B50748F42C
:1057F000F601248B358B468B578B8581806885839A
:1058000011C08091C51D9091C61D892B59F08D81C5
:105810009E81892B39F0D60115968C911597806859
:1058200015968C93F601858183FF0DC0C6010E94F9
:105830002227882341F481E0D60114968C93EFEF60
:10584000FFEFFE83ED838D819E8126960FB6F8943F
:10585000DEBF0FBECDBFCF91DF911F910F91FF90A3
:10586000EF90DF90CF90BF90AF909F908F907F9000
:105870005F904F903F902F90089582FD6FCE82CE23
:10588000DB010D900020E9F71197A61BB70BAD01C6
:105890000E94882A0895DF93CF930F92CDB7DEB789
:1058A0006983BE016F5F7F4F41E050E00E94882A0C
:1058B0000F90CF91DF910895DF92EF92FF920F93B7
:1058C0001F93CF93DF93EC010E94612A882309F490
:1058D0004EC0EC8DFD8DEF80F88409851A858EEF22
:1058E0009FEFAFEFBFEFE80EF91E0A1F1B1F0584E5
:1058F00004C0EE0CFF1C001F111F0A94D2F786850E
:105900009785A089B189E80EF91E0A1F1B1FD48054
:105910000894E108F108010911090BC0C801B70199
:105920006D0D711D811D911D0E94022E8823F9F0BD
:10593000DA94DD2099F7EC8DFD8D20E032E040E037
:1059400050E0058404C0220F331F441F551F0A94E2
:10595000D2F78C899D89AE89BF89820F931FA41FBE
:10596000B51F8C8B9D8BAE8BBF8B81E001C080E01F
:10597000DF91CF911F910F91FF90EF90DF900895ED
:105980006F927F928F929F92AF92BF92CF92DF924F
:10599000EF92FF920F931F93DF93CF93CDB7DEB7B4
:1059A0002B970FB6F894DEBF0FBECDBF5C016B0125
:1059B000822EDC0116968C91882309F0D2C0CA0190
:1059C0008E010F5F1F4FB8010E941B26882309F428
:1059D000C8C0F601848D958DD5015D969C938E93FC
:1059E0005C971782108611861286D6011B961D922F
:1059F0001D921D921C921E979924380141C0C60128
:105A00000E945829FC01009709F4ABC085E0169567
:105A10000795F794E7948A95D1F71E2D1F70808122
:105A2000882311F0853ED1F4992091F4D501539645
:105A30001C9353972091EC023091ED024091EE02BD
:105A40005091EF021F962D933D934D935C93529787
:105A50008081882399F49924939421C0C301BF01C4
:105A60004BE050E00E940234009751F4882D80737F
:105A7000803309F476C0C501612F6FC099249394D7
:105A8000F601E384F4840585168584899589A689C1
:105A9000B789E816F9060A071B0708F4B0CF882D66
:105AA0008271823109F05DC0992041F0C50161E049
:105AB0000E9405278C01009789F453C0D6011696E1
:105AC0008C91823009F44DC0C6010E945C2C882361
:105AD00009F447C0F501138A07EC1DE180E2D80103
