:100000000C94FE030C942A040C942A040C942A04E5
:100010000C942A040C942A040C942A040C942A04A8
:100020000C942A040C942A040C942A040C942A0498
:100030000C942A040C942A040C942A040C942A0488
:100040000C942A040C942A040C942A040C942A0478
:100050000C942A040C942A040C942A040C94D80BB3
:100060000C942A040C94FF0D0C94DF0E0C942A04BB
:100070000C942A040C942A040C942A040C942A0448
:100080000C942A040C942A040C942A040C942A0438
:100090000C94370E0C941E0F0C942A040C942A0412
:1000A0000C942A040C942A040C942A040C942A0418
:1000B0000C942A040C942A040C942A040C942A0408
:1000C0000C942A040C942A040C942A040C946F0EA9
:1000D0000C945D0F0C942A040C94A70E0C949C0FA6
:1000E0000C942A0400002100240027002A002D007F
:1000F0003000330001010000040107010A01000083
:100100002200250028002B002E00310034000201BF
:100110000000050108010B0100002000230026005B
:1001200029002C002F00320000010000030106010D
:10013000090105050505070508080808020202026D
:100140000A0A080804040404010101010101010173
:100150000303030303030303040707070C0C0C0C3E
:100160000C0C0C0C02020202060606060606060627
:100170000B0B0B0B0B0B0B0B0102102020080810B4
:100180002040102040800201020108040201010207
:1001900004081020408080402010080402018004E0
:1001A000020180402010080402010804020101023B
:1001B0000408102040800102040810204080000044
:1001C000090A02080B0C0D070603040100000000D9
:1001D000000000000000000000000000000000001F
:1001E0000000000000000000000011100F000000DF
:1001F00000000000000000000000000000000000FF
:100200000000000000000000003E5B4F5B3E3E6BC4
:100210004F6B3E1C3E7C3E1C183C7E3C181C577DA0
:10022000571C1C5E7F5E1C00183C1800FFE7C3E7EC
:10023000FF0018241800FFE7DBE7FF30483A060EFE
:100240002629792926407F050507407F05253F5A45
:100250003CE73C5A7F3E1C1C08081C1C3E7F1422B5
:100260007F22145F5F005F5F06097F017F00668960
:10027000956A606060606094A2FFA29408047E04A6
:100280000810207E201008082A1C08081C2A0808CC
:100290001E101010100C1E0C1E0C30383E3830068C
:1002A0000E3E0E06000000000000005F0000000788
:1002B000000700147F147F14242A7F2A12231308B6
:1002C000646236495620500008070300001C224192
:1002D000000041221C002A1C7F1C2A08083E080836
:1002E00000807030000808080808000060600020E6
:1002F000100804023E5149453E00427F40007249C9
:100300004949462141494D331814127F102745456C
:1003100045393C4A49493141211109073649494982
:1003200036464949291E00001400000040340000F0
:100330000008142241141414141400412214080259
:10034000015909063E415D594E7C1211127C7F49CC
:100350004949363E414141227F4141413E7F494921
:1003600049417F090909013E414151737F0808084D
:100370007F00417F41002040413F017F081422411E
:100380007F404040407F021C027F7F0408107F3E78
:100390004141413E7F090909063E4151215E7F09E5
:1003A000192946264949493203017F01033F40404C
:1003B000403F1F2040201F3F4038403F6314081437
:1003C0006303047804036159494D43007F4141416F
:1003D0000204081020004141417F04020102044050
:1003E00040404040000307080020545478407F28D4
:1003F0004444383844444428384444287F385454CA
:10040000541800087E090218A4A49C787F080404EC
:100410007800447D40002040403D007F102844008B
:1004200000417F40007C047804787C08040478381C
:1004300044444438FC1824241818242418FC7C084C
:10044000040408485454542404043F44243C4040C9
:10045000207C1C2040201C3C4030403C442810287C
:10046000444C9090907C4464544C440008364100C5
:100470000000770000004136080002010204023C3F
:100480002623263C1EA1A161123A4040207A38540E
:100490005455592155557941215454784121555489
:1004A000784020545579400C1E52721239555555DA
:1004B00059395454545939555454580000457C41C5
:1004C0000002457D420001457C40F0292429F0F0DE
:1004D000282528F07C545545002054547C547C0A2F
:1004E000097F4932494949323248484832324A48FC
:1004F00048303A4141217A3A42402078009DA0A0FC
:100500007D39444444393D4040403D3C24FF24244F
:10051000487E4943662B2FFC2F2BFF0929F620C06C
:10052000887E090320545479410000447D413048BD
:10053000484A32384040227A007A0A0A727D0D1900
:10054000317D2629292F28262929292630484D4062
:1005500020380808080808080808382F10C8ACBA5E
:100560002F102834FA00007B000008142A142222DD
:10057000142A1408AA005500AAAA55AA55AA0000D0
:1005800000FF00101010FF00141414FF001010FFE3
:1005900000FF1010F010F0141414FC001414F700F5
:1005A000FF0000FF00FF1414F404FC141417101FC4
:1005B00010101F101F1414141F00101010F0000052
:1005C00000001F101010101F10101010F01000006D
:1005D00000FF101010101010101010FF100000007D
:1005E000FF140000FF00FF00001F10170000FC04B4
:1005F000F414141710171414F404F40000FF00F797
:1006000014141414141414F700F7141414171410F9
:10061000101F101F141414F4141010F010F0000028
:100620001F101F0000001F14000000FC140000F049
:1006300010F01010FF10FF141414FF141010101FEE
:1006400000000000F010FFFFFFFFFFF0F0F0F0F0FF
:10065000FFFFFF0000000000FFFF0F0F0F0F0F381C
:10066000444438447C2A2A3E147E02020606027E56
:10067000027E0263554941633844443C04407E2075
:100680001E2006027E020299A5E7A5991C2A492A86
:100690001C4C7201724C304A4D4D30304878483015
:1006A000BC625A463D3E494949007E0101017E2A0D
:1006B0002A2A2A2A44445F444440514A4440404440
:1006C0004A51400000FF0103E080FF000008086B72
:1006D0006B083612362436060F090F06000018186C
:1006E0000000001010003040FF0101001F01011E3A
:1006F00000191D1712003C3C3C3C00000000000F9C
:100700000180961180FFB103012C2DB203012C2D25
:10071000B306012C2D012C2DB40107C003A20284C5
:10072000C101C5C2020A00C3028A2AC4028AEEC5F8
:10073000010E20003601C83A0105022A0400020019
:10074000812B04000100A0022A040000007F2B047A
:100750000000009F04E010021C07123732292D29E7
:10076000252B3900010310E110031D07062E2C294B
:100770002D2E2E373F0000021013800A29806412AC
:100780000180321180FF3A81050AB1830006030A15
:10079000360108B6021502B40100C08202700AC117
:1007A0000105C2020102C5823C380AFC021115E0B3
:1007B0001009160920211B131917151E2B040502F9
:1007C0000EE1900B14081E221D181E1B1A242B0666
:1007D00006020F0A2A04000200812B040002008195
:1007E00013800A2980FF7C3C3E5E2B3D3F2F5B5DE2
:1007F0003B2C2A225C007F040611CD1B11241FBE56
:10080000CFEFD1E2DEBFCDBF00E00CBF13E0A0E030
:10081000B2E0E2E1F2E600E00BBF02C007900D9209
:10082000AC33B107D9F71FE1ACE3B3E001C01D92CF
:10083000A23CB107E1F717E0CCEFD7E004C0229764
:10084000FE010E940331C63FD107C9F70E94D409B7
:100850000C944D300C940000EF92FF920F931F9375
:10086000CF93DF937C0161507040EB01CC0FDD1F13
:10087000CC0FDD1FC80FD91F32C0CD01880F991FC3
:10088000880F991F8E0D9F1DF80126813781FC016D
:10089000828193818217930708F4DA014F5F5F4FDB
:1008A0000C5F1F4F6417750744F7FD01EE0FFF1F24
:1008B000EE0FFF1FEE0DFF1D288139814A815B81FC
:1008C00080819181A281B38188839983AA83BB832C
:1008D00020833183428353836150704024971616DE
:1008E000170634F48701A0E0B0E041E050E0C5CF46
:1008F000DF91CF911F910F91FF90EF90089510928B
:10090000410310924203109245031092470389E479
:1009100093E066E047E028E00E94711A8091C902E6
:100920009091CA022091C5023091C602820F931F96
:1009300090937A03809379038091CB029091CC02BB
:100940002091C7023091C802820F931F90937C03BD
:1009500080937B030895AF92BF92CF92DF92EF9284
:10096000FF920F931F9300D00F9220E038E040E0F9
:1009700050E0EDB7FEB7218332834383548322ECEA
:1009800030ED41E550E0E9E1EE2EEFE7FE2EE1E546
:100990000E2F112DAA24BB2465010E9470130F9005
:1009A0000F900F900F90CB011F910F91FF90EF9040
:1009B000DF90CF90BF90AF900895AF92BF92CF924B
:1009C000DF92EF92FF920F931F9300D00F9220E0DF
:1009D00038E040E050E0EDB7FEB721833283438337
:1009E000548324E337E842E55FEFF8E8EF2EF0E1C7
:1009F000FF2EF3E50F2FFFEF1F2FAA24BB24650165
:100A00000E9470130F900F900F900F90CB011F91C9
:100A10000F91FF90EF90DF90CF90BF90AF9008952F
:100A2000CF92DF92EF92FF920F931F9309E4E02E93
:100A300003E0F02EC7016FEF7FEF40E050E00E942F
:100A4000AC164091CF075091D00713E0440F551FCB
:100A50001A95E1F7C70160E070E00E94A616809148
:100A6000CF079091D007B7E3CB2ED12C8C9DB0014E
:100A70008D9D700D9C9D700D112401E813E0600F99
:100A8000711FC7010E945A13C70160E070E04FEF69
:100A90005FEF0E94AC164091CD075091CE07A3E0C6
:100AA000440F551FAA95E1F7C70160E070E00E946E
:100AB000A6168091CD079091CE079C012C9DC00178
:100AC0002D9D900D3C9D900D1124080F191FC701FD
:100AD000B8010E945A131F910F91FF90EF90DF9081
:100AE000CF900895EF92FF920F931F93CF93DF93D0
:100AF000182F092FEB0189E493E060E070E00E9479
:100B00009D1889E493E060E070E040E050E00E94CE
:100B1000A61689E493E060E00E94B216212F302FE0
:100B2000C9018C0187E3E82EF12C2AC08091CD0702
:100B30009091CE070817190739F489E493E060E033
:100B400070E04FEF5FEF06C089E493E06FEF7FEF57
:100B500040E050E00E94AC160E9DB0010F9D700D5C
:100B60001E9D700D11246F577C4F89E493E00E9405
:100B70005A1389E493E06AE00E944F120F5F1F4FFF
:100B8000C017D1079CF6DF91CF911F910F91FF9075
:100B9000EF9008958F929F92AF92BF92CF92DF9283
:100BA000EF92FF920F931F93CF93DF93982E892E8E
:100BB000EB01CB0168E070E00E94B1307B010027BF
:100BC000F7FC0095102F80E099E0ADE3B0E0E80E6F
:100BD000F91E0A1F1B1FA090D902B090DA02C09024
:100BE000DB02D090DC02AE14BF04C006D106D1F007
:100BF000E092D902F092DA020093DB021093DC0259
:100C000006C082EE9CE160E072E00E945D138CE31E
:100C100093E0B801A70129EB38E10E942221882343
:100C200081F313C0209739F010C082EE9CE160E0A0
:100C300072E00E945D138CE393E0B601A50129EBFD
:100C400038E10E942221882381F3CE0168E070E020
:100C50000E94B130FC0196E0EE0FFF1F9A95E1F77C
:100C6000892D982D9C01D901E754F74E80E401901D
:100C70000D928150E1F7DF91CF911F910F91FF907D
:100C8000EF90DF90CF90BF90AF909F908F9008959E
:100C9000AF92BF92CF92DF92EF92FF920F931F938A
:100CA000CF93DF9389E00E94CF0D11E1C12E18E0B0
:100CB000D12E7601C0E0D0E081ED97E0BE010E9428
:100CC000CA05F701D183C0836091D5077091D6071B
:100CD0008091D7079091D8070E94DD040091790395
:100CE00010917A03801B910B2091D5073091D60784
:100CF0004091D7075091D8071816190664F4CA0115
:100D0000B9010E94DD042091790330917A035C01DE
:100D1000A21AB30A07C0CA01B9010E94DD04580132
:100D2000A81AB90A6091D1077091D2078091D307B0
:100D30009091D4070E94AB0400917B0310917C0337
:100D4000801B910B2091D1073091D2074091D3079E
:100D50005091D407181619065CF4CA01B9010E9413
:100D6000AB0420917B0330917C03821B930B08C062
:100D7000CA01B9010E94AB049801281B390BC901B3
:100D80008A0D9B1DF70193838283219624E030E036
:100D9000E20EF31E34E0CA32D30709F08DCF81E1B1
:100DA00098E06AE274E00E942C041092CE07109240
:100DB000CD0700E010E0C7E3D0E0F601608171816B
:100DC00081ED97E00E94CA050C9FC0010D9F900D18
:100DD0001C9F900D11248F579C4F6AED77E00E9465
:100DE00068300F5F1F4F24E030E0C20ED31E043185
:100DF000110519F780E090E063E170E00E94720550
:100E000064EF71E080E090E00E942E0C80E00E9490
:100E1000A40B8C01B3E1EB2EF12C80E00E94A40B1B
:100E2000EC0189E00E94CF0D2091CD073091CE07D3
:100E30003093D0072093CF07892B09F07BC068EC53
:100E400070E080E090E00E942E0CE091CD07F091E0
:100E5000CE07EE0FFF1FEE0FFF1FEF5EF74F608113
:100E6000718181ED97E00E94CA056091D50770916C
:100E7000D6078091D7079091D8070E94DD04909300
:100E80007A03809379036091D1077091D2078091A2
:100E9000D3079091D4070E94AB049C0190937C03EC
:100EA00080937B0380E490E09093CA028093C90210
:100EB00080E590E09093CC028093CB02409179033F
:100EC00050917A034054504020553040C090CF029A
:100ED000D090D002A090D102B090D20283ED92E0E7
:100EE00069E473E000E010E0EE24FF240E94560A5B
:100EF0000091CD021091CE026091C9027091CA0298
:100F00004091CB025091CC0289E493E09801E0EE4D
:100F1000EE2EEFEFFE2E0E94B8180E94D507DF914B
:100F2000CF911F910F91FF90EF90DF90CF90BF90E6
:100F3000AF900895CE01801B910B181619064CF442
:100F4000215030403093CE072093CD072F5F3F4F85
:100F50000AC0892B41F02F5F3F4F3093CE0720937B
:100F6000CD07215030408091CD079091CE0784313C
:100F700091052CF01092CE071092CD0706C097FF76
:100F800004C0F092CE07E092CD078091CD079091FA
:100F9000CE078217930711F00E9410056CE271E0F2
:100FA00080E090E00E942E0C38CF4F925F926F92BB
:100FB0007F928F929F92AF92BF92CF92DF92EF92E9
:100FC000FF920F931F93CF93DF9381E00E94A40BB6
:100FD0003C0180E00E94A40B4C01412CF8E05F2E04
:100FE0008091C9029091CA02909376038093750311
:100FF0008091CB029091CC029093780380937703F9
:101000008091790390917A0390937E0380937D037E
:1010100080917B0390917C039093800380937F0366
:1010200081E00E94A40B8C0180E00E94A40B7C0153
:1010300089E00E94CF0DEC01009711F40E94480650
:10104000C8018619970968E37FEF0E94B130FB0160
:101050008091C9029091CA02860F971F9093CA028D
:101060008093C902C7018819990968E37FEF0E943C
:10107000B1309B018091CB029091CC02860F971FDB
:101080009093CC028093CB028091790390917A0364
:101090008E0F9F1F90937A038093790360917B0357
:1010A00070917C03620F731F70937C0360937B03CA
:1010B00040917D0350917E038417950739F4809108
:1010C0007F039091800368177907B9F0A090CD0253
:1010D000B090CE0220917F03309180030091750380
:1010E00010917603E0907703F090780383ED92E01F
:1010F00069E473E065010E94560A209179033091FA
:101100007A0337FF03C040E050E00BC08091CD026E
:101110009091CE02A201481B590B241735070CF4FD
:10112000A90150937A034093790360917B037091F6
:101130007C0377FF03C0E0E0F0E00BC08091CD02BC
:101140009091CE02F201E81BF90B6E177F070CF4A9
:10115000FB01F0937C03E0937B036091C9027091E3
:10116000CA022091CD023091CE02C090CF02D09021
:10117000D00277FF29C0C601821B930B9093CA024D
:101180008093C9024C195D098091CB029091CC02E9
:10119000E81BF90BA090D102B090D20283ED92E04F
:1011A00069E473E09F0100E010E0EE24FF240E9458
:1011B000560A8091790390917A032091CD02309163
:1011C000CE02821B930B2CC0C601821B930B861789
:1011D000970754F51092CA021092C902240F351FC6
:1011E0008091CB029091CC02E81BF90BA090D10228
:1011F000B090D20283ED92E069E473E0A9019F010F
:1012000000E010E0EE24FF240E94560A809179034A
:1012100090917A032091CD023091CE02820F931FDC
:1012200090937A03809379034091CB025091CC0242
:101230002091CD023091CE02A090D102B090D20286
:1012400057FF30C0C501821B930B9093CC02809353
:10125000CB024091790350917A038091C902909119
:10126000CA02481B590B20917B0330917C032A1939
:101270003B09C090CF02D090D00283ED92E069E4A8
:1012800073E000E010E0EE24FF240E94560A8091F3
:101290007B0390917C032091CD023091CE02821B82
:1012A000930B32C0C501821B930B8417950784F5FD
:1012B0001092CC021092CB024091790350917A03A4
:1012C0008091C9029091CA02481B590B80917B03FF
:1012D00090917C03280F391FC090CF02D090D0028C
:1012E00083ED92E069E473E000E010E0EE24FF2477
:1012F0000E94560A80917B0390917C032091CD023D
:101300003091CE02820F931F90937C0380937B03D6
:101310000091CD021091CE026091C9027091CA0273
:101320004091CB025091CC0289E493E09801E12CEA
:10133000E8EFFE2E0E94B81882EE9CE161E272E0B6
:101340000E945A136091790370917A0382EE9CE1B6
:101350004AE050E00E94471382EE9CE163E372E0B2
:101360000E945A1360917B0370917C0382EE9CE192
:101370004AE050E00E94471382EE9CE165E472E08F
:101380000E945A1382EE9CE1BE014AE050E00E94A6
:10139000471382EE9CE10E94571262E370E080E006
:1013A00090E00E942E0C1CCEAF92BF92CF92DF92A3
:1013B000EF92FF920F931F930E94870C82EE9CE1A5
:1013C00040E855E260E070E00E94DB0F89E060E0F9
:1013D0000E94E90C89E061E00E949C0D89E493E0A1
:1013E00062E00E94431A82EE9CE16CE472E00E948B
:1013F0005A138EE59DE165E04FEF2FEF0FEF0E944E
:10140000441E882339F482EE9CE164E672E00E9477
:101410005D13FFCF82EE9CE16CE672E00E945D13EB
:1014200082EE9CE160E772E00E945A138CE393E045
:1014300061E045E02FEF0FEFEE24EA940E943221A5
:10144000882339F482EE9CE164E672E00E945D1329
:10145000FFCF82EE9CE16CE672E00E945D1340914A
:10146000C5025091C6022091C7023091C802C090B7
:10147000CF02D090D002A090D102B090D20283EDE2
:1014800092E069E473E000E010E0EE24FF240E94A3
:10149000560A0E94D50780E090E01F910F91FF90BF
:1014A000EF90DF90CF90BF90AF9008952F923F9232
:1014B0004F925F926F927F928F929F92AF92BF9264
:1014C000CF92DF92EF92FF920F931F93DF93CF9310
:1014D000CDB7DEB7C654D0400FB6F894DEBF0FBE0E
:1014E000CDBF98AF8FAB7AAF69AF5CAF4BAF49015F
:1014F000F02E1601BEAEADAE8DB79EB721969FAF52
:101500008EAF2197CE0101960E94921AAFA9B8AD75
:101510004D915C91CE014C966EE57DE121E00E94FB
:10152000121D8E8D9F8D9C838B8388A199A1AAA16A
:10153000BBA18D839E83AF83B8878CA19DA1AEA1F3
:10154000BFA189879A87AB87BC87DE011D96FE0104
:10155000B8968DE001900D928150E1F78DA99EA97A
:101560009B8F8A8F2E010894411C511CC2010E943E
:10157000E21A182FCE014C960E94A51A1123A1F44D
:1015800082EE9CE168E972E00E945A13EFA9F8AD7F
:101590006081718182EE9CE10E945A1382EE9CE18F
:1015A00067E20E947712A9C02F2D2150220D0E2D27
:1015B0000150FDAD0F0F89AD9AAD6F2D4E2D0E94DC
:1015C00047173101660C771C5401CC24DD24882494
:1015D0009924C201542C492EABADBCADCD01A0E085
:1015E000B0E027968CAF9DAFAEAFBFAF279778C066
:1015F000FDB6EEB62296FFAE22972396EFAE239766
:101600008DB79EB7861997090FB6F8949EBF0FBE87
:101610008DBF0DB71EB70F5F1F4FAFA9B8AD1296A4
:101620002D913C91139740E050E0C601B5010E9416
:101630007E30AB01BC0127968CAD9DADAEADBFAD8C
:101640002797480F591F6A1F7B1F440F551F661F9E
:10165000771F852D942D0E94011B852D942DB80197
:10166000A3010E94131B8615970519F4EE24FF248D
:1016700020C082EE9CE169EA72E00E945D13852D34
:10168000942D0E94EF1A8F2D9E2D9C010FB6F89479
:101690003EBF0FBE2DBF31C0D8017C9111966C9119
:1016A00089AD9AAD0E948B170894E11CF11C0E5F66
:1016B0001F4FE214F30480F322968FAD22972396F6
:1016C0009FAD23979C010FB6F8943EBF0FBE2DBF70
:1016D0000894811C911C0894A11CB11CC11CD11C34
:1016E000EDADFEAD8E169F0608F482CF852D942DAC
:1016F0000E94EF1A852D942D02C0CE0101960E9402
:10170000A51A21968EAD9FAD21970FB6F8949EBF76
:101710000FBE8DBFCA5BDF4F0FB6F894DEBF0FBEA2
:10172000CDBFCF91DF911F910F91FF90EF90DF9090
:10173000CF90BF90AF909F908F907F906F905F9071
:101740004F903F902F900895382F863308F03653EE
:1017500020917B00832F86958695869590E08170F9
:10176000907043E0880F991F4A95E1F7277F282B57
:1017700020937B0037708091DD028295880F880F5F
:10178000807C832B80937C0080917A00806480939E
:101790007A0080917A0086FDFCCF209178004091FC
:1017A0007900942F80E030E0282B392BC90108956F
:1017B0001F920F920FB60F9211242F933F938F9386
:1017C0009F93AF93BF938091BD1A9091BE1AA09141
:1017D000BF1AB091C01A3091C11A0196A11DB11D56
:1017E000232F2D5F2D3720F02D570196A11DB11D00
:1017F0002093C11A8093BD1A9093BE1AA093BF1A6A
:10180000B093C01A8091B91A9091BA1AA091BB1ADC
:10181000B091BC1A0196A11DB11D8093B91A909385
:10182000BA1AA093BB1AB093BC1ABF91AF919F9103
:101830008F913F912F910F900FBE0F901F90189591
:101840008FB7F8942091BD1A3091BE1A4091BF1AFB
:101850005091C01A8FBFB901CA0108959B01AC0114
:101860007FB7F8948091B91A9091BA1AA091BB1AD7
:10187000B091BC1A66B5A89B05C06F3F19F00196E0
:10188000A11DB11D7FBFBA2FA92F982F8827860FC2
:10189000911DA11DB11D62E0880F991FAA1FBB1FDA
:1018A0006A95D1F7BC012DC0FFB7F8948091B91AA1
:1018B0009091BA1AA091BB1AB091BC1AE6B5A89B38
:1018C00005C0EF3F19F00196A11DB11DFFBFBA2F52
:1018D000A92F982F88278E0F911DA11DB11DE2E021
:1018E000880F991FAA1FBB1FEA95D1F7861B970B7C
:1018F000885E9340C8F221503040404050406851CB
:101900007C4F211531054105510571F608957894F4
:1019100084B5826084BD84B5816084BD85B58260F4
:1019200085BD85B5816085BDEEE6F0E08081816092
:101930008083E1E8F0E01082808182608083808192
:1019400081608083E0E8F0E0808181608083E1EB6A
:10195000F0E0808184608083E0EBF0E08081816052
:101960008083E1E9F0E08081826080838081816012
:101970008083E0E9F0E0808181608083E1EAF0E04B
:10198000808182608083808181608083E0EAF0E0F2
:10199000808181608083E1E2F1E0808182608083E8
:1019A000808181608083E0E2F1E0808181608083DA
:1019B000EAE7F0E0808184608083808182608083B8
:1019C0008081816080838081806880831092C100E3
:1019D0000895CF93DF93482F50E0CA0188589E4F57
:1019E000FC0134914E5C5E4FFA018491882369F1C9
:1019F00090E0880F991FFC01EC51FF4FA591B49125
:101A0000FC01E250FF4FC591D491662351F42FB7EA
:101A1000F8948C91932F909589238C9388818923B6
:101A20000BC0623061F42FB7F8948C91932F90958E
:101A300089238C938881832B88832FBF06C09FB70F
:101A4000F8948C91832B8C939FBFDF91CF91089555
:101A5000893009F449C08A30A0F4843051F18530CE
:101A600040F4823079F1833000F5813009F063C0B1
:101A700026C0873079F1883098F5863009F05BC050
:101A800025C08D3009F442C08E3028F48B30B1F17E
:101A90008C30C0F52DC0803109F442C0813109F489
:101AA00045C08F3009F047C037C0809180008F77E4
:101AB00003C0809180008F7D80938000089584B55D
:101AC0008F7702C084B58F7D84BD08958091B0006A
:101AD0008F7703C08091B0008F7D8093B000089510
:101AE000809190008F7707C0809190008F7D03C018
:101AF00080919000877F8093900008958091A0004E
:101B00008F7707C08091A0008F7D03C08091A000D7
:101B1000877F8093A0000895809120018F7703C074
:101B2000809120018F7D8093200108958091200174
:101B3000877F809320010895FF920F931F93F62EC5
:101B4000482F50E0CA0182549E4FFC012491CA01E3
:101B500088589E4FFC0114914E5C5E4FFA0104912F
:101B60000023C9F0222319F0822F0E94280DE02FB4
:101B7000F0E0EE0FFF1FE250FF4FA591B4919FB729
:101B8000F894FF2021F48C911095812302C08C9150
:101B9000812B8C939FBF1F910F91FF9008950F93FE
:101BA0001F93482F50E0CA0182549E4FFC0124919C
:101BB000CA0188589E4FFC0104914E5C5E4FFA01A9
:101BC0001491112319F420E030E015C0222319F0FC
:101BD000822F0E94280D812F90E0880F991F885E28
:101BE0009E4FFC01A591B4918C9120E030E08023C0
:101BF00011F021E030E0C9011F910F9108951F926B
:101C00000F920FB60F920BB60F9211242F933F93A2
:101C10004F938F939F93EF93FF934091C600209132
:101C2000021B3091031B2F5F3F4F2F733070809149
:101C3000041B9091051B2817390759F0E091021BEE
:101C4000F091031BEE53F54E40833093031B20931A
:101C5000021BFF91EF919F918F914F913F912F9197
:101C60000F900BBE0F900FBE0F901F9018951F92F4
:101C70000F920FB60F920BB60F9211242F933F9332
:101C80004F938F939F93EF93FF934091CE002091BA
:101C90008A1B30918B1B2F5F3F4F2F7330708091C9
:101CA0008C1B90918D1B2817390759F0E0918A1BE6
:101CB000F0918B1BE65BF44E408330938B1B20939B
:101CC0008A1BFF91EF919F918F914F913F912F919F
:101CD0000F900BBE0F900FBE0F901F9018951F9284
:101CE0000F920FB60F920BB60F9211242F933F93C2
:101CF0004F938F939F93EF93FF934091D600209142
:101D0000121C3091131C2F5F3F4F2F733070809146
:101D1000141C9091151C2817390759F0E091121CDA
:101D2000F091131CEE52F44E40833093131C209319
:101D3000121CFF91EF919F918F914F913F912F91A5
:101D40000F900BBE0F900FBE0F901F9018951F9213
:101D50000F920FB60F920BB60F9211242F933F9351
:101D60004F938F939F93EF93FF9340913601209170
:101D70009A1C30919B1C2F5F3F4F2F7330708091C6
:101D80009C1C90919D1C2817390759F0E0919A1CD2
:101D9000F0919B1CE65AF34E408330939B1C20939A
:101DA0009A1CFF91EF919F918F914F913F912F91AD
:101DB0000F900BBE0F900FBE0F901F9018951F92A3
:101DC0000F920FB60F920BB60F9211242F933F93E1
:101DD0008F939F93EF93FF932091461B3091471B66
:101DE0008091481B9091491B2817390731F4809145
:101DF000C1008F7D8093C10014C0E091481BF09119
:101E0000491BEA5FF44E20818091481B9091491B49
:101E100001968F7390709093491B8093481B209379
:101E2000C600FF91EF919F918F913F912F910F905D
:101E30000BBE0F900FBE0F901F9018951F920F9220
:101E40000FB60F920BB60F9211242F933F938F93DF
:101E50009F93EF93FF932091CE1B3091CF1B8091E6
:101E6000D01B9091D11B2817390731F48091C900FC
:101E70008F7D8093C90014C0E091D01BF091D11BDD
:101E8000E257F44E20818091D01B9091D11B019696
:101E90008F7390709093D11B8093D01B2093CE00B2
:101EA000FF91EF919F918F913F912F910F900BBEDA
:101EB0000F900FBE0F901F9018951F920F920FB6A4
:101EC0000F920BB60F9211242F933F938F939F93F2
:101ED000EF93FF932091561C3091571C8091581C12
:101EE0009091591C2817390731F48091D1008F7DCA
:101EF0008093D10014C0E091581CF091591CEA5E07
:101F0000F34E20818091581C9091591C01968F733B
:101F100090709093591C8093581C2093D600FF9189
:101F2000EF919F918F913F912F910F900BBE0F904A
:101F30000FBE0F901F9018951F920F920FB60F9221
:101F40000BB60F9211242F933F938F939F93EF9390
:101F5000FF932091DE1C3091DF1C8091E01C90915A
:101F6000E11C2817390731F4809131018F7D80936E
:101F7000310114C0E091E01CF091E11CE256F34EF7
:101F800020818091E01C9091E11C01968F739070EC
:101F90009093E11C8093E01C20933601FF91EF9118
:101FA0009F918F913F912F910F900BBE0F900FBE7D
:101FB0000F901F901895AF92BF92DF92EF92FF9211
:101FC0000F931F93CF93DF93EC017A018B01DD24F4
:101FD000403081EE580780E0680780E0780711F014
:101FE000DD24D39491E0A92EB12CEC89FD89DD206C
:101FF00069F0C5010E8C02C0880F991F0A94E2F7A0
:10200000808360E079E08DE390E005C0108260E8B5
:1020100074E88EE190E0A80197010E94C43021503D
:10202000304040405040569547953795279580E180
:102030002030380720F0DD2011F0DD24D6CFE889EC
:10204000F9893083EA89FB892083EE89FF89408101
:1020500021E030E0C9010A8C02C0880F991F0A9460
:10206000E2F7482B4083EE89FF894081C9010B8C40
:1020700002C0880F991F0A94E2F7482B4083EE892B
:10208000FF894081C9010C8C02C0880F991F0A94F6
:10209000E2F7482B4083EE89FF8980810D8C02C0D6
:1020A000220F331F0A94E2F7209528232083DF9123
:1020B000CF911F910F91FF90EF90DF90BF90AF9065
:1020C0000895DC011C96ED91FC911D97E05CFF4F9B
:1020D0002191319180819181281B390B2F733070B0
:1020E000C9010895DC011C96ED91FC911D97E05CFF
:1020F000FF4F20813181E054F040DF01AE5BBF4FE4
:102100008D919C9111972817390719F42FEF3FEF04
:1021100007C08D919C91E80FF91F8081282F30E036
:10212000C9010895DC011C96ED91FC911D97E05CBE
:10213000FF4F20813181E054F040DF01AE5BBF4FA3
:102140008D919C9111972817390719F42FEF3FEFC4
:1021500010C08D919C911197E80FF91F20818D91EE
:102160009C91119701968F73907011969C938E930A
:1021700030E0C9010895FC0186859785DC01A05CEB
:10218000BF4FFC01EE5BFF4F2D913C911197808179
:10219000918128173907C1F70895CF93DF93EC0198
:1021A000EE85FF85E05CFF4F20813181E054F040F7
:1021B0002F5F3F4F2F733070DF01AE5BBF4F8D91AC
:1021C0009C91119728173907D1F3E05CFF4F80816C
:1021D0009181E054F040E80FF91F6083EE85FF85A0
:1021E000E05CFF4F31832083EE89FF89208181E00D
:1021F00090E00D8C02C0880F991F0A94E2F7282BFB
:10220000208381E090E0DF91CF9108951F93109299
:10221000E51C1092E41C28EE33E040E050E02093EF
:10222000E61C3093E71C4093E81C5093E91C66EED3
:1022300072E07093E31C6093E21C82EC9AE190934D
:10224000EF1C8093EE1C86E09BE19093F11C809341
:10225000F01C85EC90E09093F31C8093F21C84ECCE
:1022600090E09093F51C8093F41C80EC90E09093A8
:10227000F71C8093F61C81EC90E09093F91C8093FE
:10228000F81C86EC90E09093FB1C8093FA1C14E001
:102290001093FC1CB3E0B093FD1CA7E0A093FE1CC0
:1022A000F5E0F093FF1CE1E0E093001D1092041DA7
:1022B0001092031D2093051D3093061D4093071DAA
:1022C0005093081D7093021D6093011D8AE49BE1E9
:1022D00090930E1D80930D1D8EE89BE19093101D31
:1022E00080930F1D8DEC90E09093121D8093111D33
:1022F0008CEC90E09093141D8093131D88EC90E07B
:102300009093161D8093151D89EC90E09093181DF5
:102310008093171D8EEC90E090931A1D8093191DE9
:1023200010931B1DB0931C1DA0931D1DF0931E1D2B
:10233000E0931F1D1092231D1092221D2093241D37
:102340003093251D4093261D5093271D7093211D0A
:102350006093201D82ED9BE190932D1D80932C1D99
:1023600086E19CE190932F1D80932E1D85ED90E0DA
:102370009093311D8093301D84ED90E09093331D38
:102380008093321D80ED90E09093351D8093341D35
:1023900081ED90E09093371D8093361D86ED90E09F
:1023A0009093391D8093381D10933A1DB0933B1DB7
:1023B000A0933C1DF0933D1DE0933E1D1092421DE5
:1023C0001092411D2093431D3093441D4093451DA1
:1023D0005093461D7093401D60933F1D8AE59CE11C
:1023E00090934C1D80934B1D8EE99CE190934E1D64
:1023F00080934D1D85E391E09093501D80934F1D78
:1024000084E391E09093521D8093511D80E391E00D
:102410009093541D8093531D81E391E09093561D3A
:102420008093551D86E391E09093581D8093571D2E
:102430001093591DB0935A1DA0935B1DF0935C1D22
:10244000E0935D1D1F9108950895CF92DF92EF9262
:10245000FF920F931F93CF93DF937C016B018A014F
:10246000C0E0D0E00FC0D6016D916D01D701ED91B4
:10247000FC910190F081E02DC7011995C80FD91F7B
:10248000015010400115110571F7CE01DF91CF9178
:102490001F910F91FF90EF90DF90CF900895DC0196
:1024A000ED91FC910190F081E02D19950895EF9246
:1024B000FF920F931F938C01DC01ED91FC91019031
:1024C000F081E02D6DE019957C01D801ED91FC9132
:1024D0000190F081E02DC8016AE019959C012E0D54
:1024E0003F1DC9011F910F91FF90EF900895EF924A
:1024F000FF920F931F937C01DC01ED91FC91019001
:10250000F081E02D19958C01C7010E945712080F28
:10251000191FC8011F910F91FF90EF900895CF935D
:10252000DF93DB010D900020E9F71197A61BB70B95
:10253000EC01E881F9810280F381E02DAD0119956C
:10254000DF91CF9108954F925F927F928F929F92E9
:10255000AF92BF92CF92DF92EF92FF920F931F93B1
:10256000DF93CF93CDB7DEB7A1970FB6F894DEBF58
:102570000FBECDBF2C01742ECB01223008F42AE00F
:1025800019A231E2C32ED12CCC0EDD1E822E99244D
:10259000AA24BB24672D752FA50194010E94C43085
:1025A00079018A01C801B701A50194010E947E301A
:1025B000472D461B0894C108D1084A3014F4405DE9
:1025C00001C0495CF6014083E114F10401051105E5
:1025D00021F07E2C5F2DC801DDCFC201B6010E9423
:1025E0008F12A1960FB6F894DEBF0FBECDBFCF916C
:1025F000DF911F910F91FF90EF90DF90CF90BF90F0
:10260000AF909F908F907F905F904F900895CF9262
:10261000DF92EF92FF920F931F93CF93DF93EC0122
:102620006A017B012115310541F4E881F9810190AE
:10263000F081E02D642F19951FC02A303105D1F4A7
:1026400077FF17C0E881F9810190F081E02D6DE2FC
:1026500019958C0144275527BA014C195D096E095B
:102660007F09CE012AE00E94A3129801280F391F8A
:1026700004C02AE00E94A3129C01C901DF91CF91FE
:102680001F910F91FF90EF90DF90CF900895EF9200
:10269000FF920F931F937B019A010027F7FC00958F
:1026A000102FB801A7010E9407131F910F91FF90EF
:1026B000EF9008950E948F120895EF92FF920F936A
:1026C0001F937C010E948F128C01C7010E94571238
:1026D000080F191FC8011F910F91FF90EF900895E7
:1026E0002F923F924F925F926F927F928F929F9222
:1026F000AF92BF92CF92DF92EF92FF920F931F9310
:10270000DF93CF93CDB7DEB73B014C0119012A010E
:102710006E897F89888D998D6A197B098C099D093D
:10272000621A730A840A950AA40193010E947E30FA
:10273000E218F30804091509A80197010E94E63080
:102740002A0D3B1D4C1D5D1DB901CA01CF91DF91C2
:102750001F910F91FF90EF90DF90CF90BF90AF90BF
:102760009F908F907F906F905F904F903F902F90B1
:102770000895FC011382128286EF92E09183808398
:102780007583648357834683718760875387428745
:10279000158A158614861786168621E0248B8FEFFE
:1027A0009FEF938B828B918B808B268B08952F923A
:1027B0003F924F925F926F927F928F929F92AF92D1
:1027C000BF92CF92DF92EF92FF920F931F93DF930E
:1027D000CF9300D00F92CDB7DEB73C017C836B83E3
:1027E0006A015901FA82E982222433249801241BC8
:1027F000350B37FF03C0309521953F4FC5014B8105
:102800005C81841B950B97FF03C0909581959F4F2A
:10281000821793075CF481E0282E312CC601CB800F
:10282000DC809C838B83C80185015C018B819C814A
:10283000A816B90644F4C501AB80BC809C838B8389
:10284000C80186016C012501AB81BC814A1A5B0A73
:102850007801EC18FD08F7FE04C0F094E194F1084B
:10286000F394C016D10624F088248A94982C03C0CF
:10287000B1E08B2E912CC20162E070E00E94B13079
:102880008B0125C0D301ED91FC912114310441F05D
:102890000480F581E02DC301B6014B815C8107C046
:1028A0000480F581E02DC3016B817C81A601298123
:1028B0003A8119950E191F0917FF04C0C80CD91CBD
:1028C000040D151DEB81FC813196FC83EB834B815C
:1028D0005C81A416B506B4F60F900F900F900F9080
:1028E000CF91DF911F910F91FF90EF90DF90CF90EC
:1028F000BF90AF909F908F907F906F905F904F9020
:102900003F902F9008954F925F926F927F928F9297
:102910009F92AF92BF92CF92DF92EF92FF920F936E
:102920001F936C015B014A0139012801DC01ED9123
:10293000FC910284F385E02D87011995D601ED9174
:10294000FC91A40141505040440D551D0284F38573
:10295000E02DC601B50193011995D601ED91FC91C9
:102960000084F185E02DC601B501A40192011995FD
:10297000D601ED91FC910894A108B108A60CB71CF2
:102980000084F185E02DC601B501A40192011995DD
:102990001F910F91FF90EF90DF90CF90BF90AF907D
:1029A0009F908F907F906F905F904F900895CF92FF
:1029B000DF92EF92FF920F931F93DC016B0178017E
:1029C000ED91FC918A0101501040020F131F068007
:1029D000F781E02D960119951F910F91FF90EF90CF
:1029E000DF90CF900895CF92DF92EF92FF920F93F6
:1029F0001F93DC016A01C9017801ED91FC911197E7
:102A00009B0121503040280F391F0680F781E02DAF
:102A1000CD01860119951F910F91FF90EF90DF90E6
:102A2000CF9008956F927F928F929F92AF92BF92B4
:102A3000CF92DF92EF92FF920F931F93CF93DF938A
:102A40005C013A0169014801EB01C60ED71E0DC0B9
:102A5000D501ED91FC910084F185E02DC501BE0109
:102A6000A3019401870119952196CC15DD0584F306
:102A7000DF91CF911F910F91FF90EF90DF90CF905A
:102A8000BF90AF909F908F907F906F900895EF923E
:102A9000FF920F931F93FC017B01A081B1812085E0
:102AA0003185028513851E960D90BC91A02D60E0A6
:102AB00070E040E050E0FD0119951F910F91FF90EB
:102AC000EF9008952F923F924F925F926F927F9274
:102AD0008F929F92AF92BF92CF92DF92EF92FF922E
:102AE0000F931F93DF93CF93CDB7DEB72F970FB61A
:102AF000F894DEBF0FBECDBF5C015E834D831887A7
:102B00000F83FA86E986CB86DC0118968D919C911D
:102B10001997681779070CF0A4C01A968D919C91AB
:102B20001B97481759070CF09CC0EC2DF0E0FF876D
:102B3000EE87CF01880F991F8E0F9F1F880F991F57
:102B4000860F971F181619060CF08BC0CF01F3E003
:102B5000880F991FFA95E1F7840F951F181619062B
:102B60000CF07FC085E0289FA00111245A8349837F
:102B70002B011B011C825C81553011F480E005C0E3
:102B8000E981FA81EC5FFD4F84912C863D866D8052
:102B90007E8043011B82C82EDD2480FF1CC0D5012E
:102BA000ED91FC91BB85B13049F40480F581E02DB5
:102BB000C501B201A3012F81388522C00684F785A3
:102BC000E02DC5016C857D85A4012E853F85890199
:102BD000EF80F88423C0E985FA852F813885E217D4
:102BE000F307E9F0D501ED91FC91BB85B13051F4CB
:102BF0000480F581E02DC501B201A30129853A8544
:102C000019950DC00684F785E02DC5016C857D857D
:102C1000A4012E853F858901E984FA841995EB8109
:102C2000EF5FEB832E853F85820E931E0894611C17
:102C3000711CE83021F0D594C7948C2DACCF3C8129
:102C40003F5F3C834E855F85240E351E0894411CF2
:102C5000511C89819A8101969A838983363009F0C3
:102C60008ACF2F960FB6F894DEBF0FBECDBFCF919F
:102C7000DF911F910F91FF90EF90DF90CF90BF9069
:102C8000AF909F908F907F906F905F904F903F900C
:102C90002F900895CF92EF92FF920F931F93CF93AF
:102CA000DF93EC01262F6A3061F42C8930E003E0D9
:102CB000220F331F0A95E1F78E859F85820F931FA0
:102CC00037C06D30C9F16C857D854E855F8508897B
:102CD0001989EA88FB88CC880E9462152C8986E0D5
:102CE000289FB00111248C859D85680F791F7D87F1
:102CF0006C878E89882301F1422F50E08AEF9FEF85
:102D00009C01429FC001439F900D529F900D112442
:102D100028853985820F931F861797076CF413E077
:102D2000440F551F1A95E1F78E859F85840F951FD7
:102D30009F878E871D861C8681E090E0DF91CF9172
:102D40001F910F91FF90EF90CF900895FC01758730
:102D50006487578746870895FC01718B608B538B7E
:102D6000428B0895FC01668B08950895DC01589606
:102D70008C915897882329F06EBD0DB407FEFDCFC6
:102D8000089530E840E050E070E0832F90E0862323
:102D900097235996ED91FC915A9796962C91969778
:102DA000892B21F08081822B808304C08081209533
:102DB000282320835B96ED91FC915C978081979608
:102DC0009C919797892B80835B96ED91FC915C9702
:102DD000908197968C9197978095892380833695DB
:102DE0004F5F5F4F4830510581F608950F931F9351
:102DF0008C01DC015F96ED91FC9190979081999602
:102E00008C9199978095892380835D96ED91FC91B3
:102E10005E97908198968C91809589238083C801D4
:102E20000E94B616D8015D96ED91FC915E97808167
:102E300098969C91892B80831F910F9108950F93F1
:102E40001F938C01DC015F96ED91FC91909780813E
:102E500099969C919997892B80835D96ED91FC9131
:102E60005E97908198968C91809589238083C80184
:102E70000E94B616D8015D96ED91FC915E97808117
:102E800098969C91892B80831F910F910895CF92E2
:102E9000DF92EF92FF920F931F937C01162FC42EA7
:102EA000D22E6AE20E94F616C70160E00E941F1748
:102EB000F70162A5610FC7010E941F17C70160E0FB
:102EC0000E941F17F70162A56D0DC7010E941F1711
:102ED000C7016BE20E94F616C70160E00E941F174F
:102EE000F70163A56C0DC7010E941F17C70160E0C1
:102EF0000E941F17F70163A5600FC7010E941F17EB
:102F0000C7016CE20E94F6161F910F91FF90EF909F
:102F1000DF90CF900895FF920F931F938C01F62EB0
:102F2000672FDC015F96ED91FC91909780819996D7
:102F30009C919997892B80835D96ED91FC915E978A
:102F4000908198968C91809589238083C8010E94F6
:102F5000B616C8016F2D0E94B616D8015D96ED9188
:102F6000FC915E97808198969C91892B80831F911C
:102F70000F91FF900895FF920F931F93CF93DF93CC
:102F8000EC01F22E132F77FD2EC0888599856817E6
:102F900079074CF557FD27C08A859B854817590747
:102FA00014F5262F2F5F042F0F5FCE010E944717C5
:102FB000EF8DF8A1808199A5892B8083ED8DFE8D01
:102FC000908188A5809589238083CE01612F0E94FE
:102FD000B616CE016F2D0E94B616ED8DFE8D808146
:102FE00098A5892B8083DF91CF911F910F91FF903E
:102FF0000895DF92EF92FF920F931F93CF93DF9389
:10300000EC01FB017901D02E888599856817790735
:10301000D4F52A853B8542175307ACF5C701840FC9
:10302000951F281739071CF47901E41AF50A042FB3
:1030300001500E0DCE016E2F2E2F0E944717EF8DDF
:10304000F8A1808199A5892B8083ED8DFE8D9081DB
:1030500088A580958923808308C0CE01612F0E94B6
:10306000B616CE016D2D0E94B6160894E108F1083F
:103070008FEFE8168FEFF80681F7ED8DFE8D8081DA
:1030800098A5892B8083DF91CF911F910F91FF909D
:10309000EF90DF900895DF92EF92FF920F931F93CE
:1030A000CF93DF93EC01FA017901D02E2885398581
:1030B00062177307D4F58A859B8548175907ACF5C5
:1030C000C701860F971F281739071CF47901E61AE4
:1030D000F70A262F21502E0DCE014E2F0E2F0E94C3
:1030E0004717EF8DF8A1808199A5892B8083ED8DFD
:1030F000FE8D908188A580958923808308C0CE01AC
:10310000612F0E94B616CE016D2D0E94B61608944E
:10311000E108F1088FEFE8168FEFF80681F7ED8DE3
:10312000FE8D808198A5892B8083DF91CF911F919F
:103130000F91FF90EF90DF900895EF92FF920F9321
:103140001F93FC017B01A081B1812085318502851F
:1031500013851E960D90BC91A02D60E070E040E0BC
:1031600050E0FD0119951F910F91FF90EF90089588
:10317000AF92BF92CF92DF92EF92FF920F931F9385
:10318000CF93DF936C015901E801DC0118962D9172
:103190003C911997621773070CF057C01A96ED917E
:1031A000FC911B974E175F070CF04FC0C501860FAF
:1031B000971F281739071CF45901A61AB70ACE0120
:1031C000840F951FE817F9071CF4EF01C41BD50BFA
:1031D000262F21502A0D042F01500C0FC6010E94EA
:1031E0004717D6015F96ED91FC9190978081999653
:1031F0009C919997892B80835D96ED91FC915E97C8
:10320000908198968C918095892380838E010EC041
:10321000C6016F2D0E94B616C6016E2D0E94B6160D
:1032200021971C161D06A4F301501040101611061C
:1032300014F4E501F6CFD6015D96ED91FC915E9711
:10324000808198969C91892B8083DF91CF911F91EB
:103250000F91FF90EF90DF90CF90BF90AF900895C7
:10326000662311F460E201C061E20E94F61608953F
:10327000AF92BF92CF92DF92EF92FF920F931F9384
:10328000CF93DF935C01FB01EB012196D49031C019
:103290008E010F5F1F4FFE016491C5010E94F6165B
:1032A00078010894E11CF11CF801C4900C2D0F77F3
:1032B000E701102F08C0FE012196E491C5016E2F91
:1032C0000E941F1711501123B1F7E701C00FD11D44
:1032D000C7FE0EC0FE018491682F70E06F3F71053C
:1032E00011F464EF71E0219680E090E00E942E0CD2
:1032F000DA94DD2069F6DF91CF911F910F91FF9055
:10330000EF90DF90CF90BF90AF9008950F931F93F1
:10331000CF93DF93EC018B011BA61AA68AA161E073
:103320000E94E90C89A161E00E94E90CE9A14E2FFD
:1033300050E0FA01EE5CFE4FE491F0E0EE0FFF1F6B
:10334000E250FF4F859194919E8F8D8FEAA12E2F91
:1033500030E0F901EE5CFE4FE491F0E0EE0FFF1F6C
:10336000E250FF4F8591949198A38F8F48585E4FFC
:10337000FA01849188A728583E4FF901849189A7C2
:10338000888D882361F00E94F92E80E00E94E82E4B
:1033900081E00E94DA2E80E00E94E32E3DC08DA1E4
:1033A00061E00E94E90C8CA161E00E94E90CEDA1B2
:1033B0004E2F50E0FA01EE5CFE4FE491F0E0EE0F8C
:1033C000FF1FE250FF4FA591B491BC8FAB8FECA1D2
:1033D0002E2F30E0F901EE5CFE4FE491F0E0EE0FAD
:1033E000FF1FE250FF4F859194919A8F898F485823
:1033F0005E4FFA0194919FA328583E4FF9018491A2
:103400008EA38C91909598239C93E98DFA8D908151
:103410008EA1809589238083ED8DFE8D908188A576
:103420008095892380838BA1882309F161E00E9424
:10343000E90C8BA161E00E949C0D64EF71E080E0DB
:1034400090E00E942E0C8BA160E00E949C0D64EF26
:1034500071E080E090E00E942E0C8BA161E00E9460
:103460009C0D64EF71E080E090E00E942E0C01154D
:10347000110521F0CE01B8010E943819DF91CF91DA
:103480001F910F9108951F93CF93DF93EC01162F97
:103490006FEF76E00E948619112351F4CE016AE3A2
:1034A00077E00E94381982E08AA781E08BA705C0E7
:1034B000CE0167E477E00E943819CE0164E577E039
:1034C0000E943819123041F4CE0166E30E94F616CC
:1034D000CE0160EC0E941F171F8BDF91CF911F91CF
:1034E0000895DF92EF92FF920F931F938C01F62EB7
:1034F000E42ED22E60E870E040EA50E00E94B9135A
:103500008EE093E0F80191838083F1A2E2A2D3A23E
:1035100081E0808F15A214A21F910F91FF90EF9070
:10352000DF900895FC011382128288EE93E0A0E000
:10353000B0E084839583A683B78386E293E091838A
:103540008083128E118E14860895FC0186E293E02A
:10355000918380830895FC01A18DB28D109719F499
:1035600020E030E009C0ED91FC9111970190F081CD
:10357000E02DCD0119959C01C9010895DC015996F2
:10358000ED91FC915A97309719F420E030E018C083
:10359000248935894689578983859485A585B6858B
:1035A000281B390B4A0B5B0B2030B0E83B07B0E01F
:1035B0004B07B0E05B0720F02FEF3FE740E050E023
:1035C000C9010895DC015996ED91FC915A97309705
:1035D00011F480E008958681811181E00895CF93F0
:1035E000DF93EC01898D9A8D009741F00E94BA23F8
:1035F000898D9A8D0E94B52F1A8E198EDF91CF91E9
:103600000895FC01818D928D009711F480E008955A
:103610000E94AA220895FC01818D928D009711F0DD
:103620000E9470230895FC01818D928D009719F4FA
:1036300020E030E003C00E9491249C01C90108955C
:10364000DF93CF930F92CDB7DEB7FC01818D928DC2
:10365000009749F0BE016F5F7F4F41E050E00E944C
:103660009124019719F02FEF3FEF03C08981282F94
:1036700030E0C9010F90CF91DF910895EF92FF9252
:103680000F931F93DF93CF930F92CDB7DEB77C01DB
:10369000DC0159968D919C915A97009719F400E09E
:1036A00010E01FC0BE016F5F7F4F41E050E00E94FD
:1036B0009124019719F00FEF1FEF13C08981082F94
:1036C00010E0D7015996ED91FC915A9743855485A6
:1036D000658576854150504060407040CF010E9422
:1036E000AA22C8010F90CF91DF911F910F91FF90F7
:1036F000EF900895FC01818D928D009719F420E0E0
:1037000030E003C00E94D6269C01C9010895FC0147
:10371000818D928D009719F420E030E003C00E9463
:103720008E289C01C9010895EF92FF920F931F9379
:10373000CF93DF93EC01F62EE72E8A011B821A82CB
:1037400088EE93E0A0E0B0E08C839D83AE83BF83DE
:1037500086E293E0998388838EE190E00E94182F9F
:103760009A8F898F009791F0DC018F2D9E2D9C01FF
:10377000F9018EE101900D928150E1F7CE010C9696
:10378000B8014CE050E00E946F30188EDF91CF916D
:103790001F910F91FF90EF90089582E090E0A0E0DC
:1037A000B0E080935E1D90935F1DA093601DB09369
:1037B000611D1092751D10927F1D10927E1D88E371
:1037C00093E090937D1D80937C1D1092821D10923A
:1037D0009F1D1092A01D1092A31D1092A51D08956B
:1037E0002F923F924F925F926F927F928F929F9211
:1037F000AF92BF92CF92DF92EF92FF920F931F93FF
:10380000DF93CF93CDB7DEB7C954D0400FB6F8944D
:10381000DEBF0FBECDBF582E492EFB013A01190164
:1038200080A191A1998B888B28E333E03F872E8775
:1038300082A18A8B83A18B8B84A18C8B85A196A17D
:10384000A7A1B0A58D8B9E8BAF8BB88F81A592A5BC
:10385000A3A5B4A5898F9A8FAB8FBC8F85A596A59C
:10386000A7A5B0A98D8F9E8FAF8FB8A381A989A37B
:1038700082A993A9A4A9B5A98AA39BA3ACA3BDA31C
:1038800086A997A9A0ADB1AD8EA39FA3A8A7B9A7FC
:1038900082AD93AD9BA78AA71FA61EA63DA72CA706
:1038A0001AAA7A018E01025F1F4F3CE2A32EB12CAF
:1038B000AC0EBD1E4E010894811C911C35C0D70171
:1038C0008C918F3221F40894E11CF11C2DC0422F01
:1038D0004E194D3008F04CE0C42EDD24C401B70170
:1038E000A6010E946F30F401EC0DFD1D1082C50190
:1038F0000E94BA23C501B801A40121E00E940E294B
:10390000882351F4E52DF42D1382128288E393E08D
:103910009183808316826AC0EC0CFD1CC8010E9452
:10392000BA23C50158018C01C7016FE270E00E9403
:103930005D309C01009719F6E618F708F101F18255
:10394000E082E52DF42DD80112968D919C9113976C
:103950009383828388E393E09183808314968C9190
:103960001497848315968C911597858316968C9160
:103970001697868317962D913D914D915C911A97DC
:1039800027833087418752871B962D913D914D911A
:103990005C911E9723873487458756871F962D9104
:1039A0003D914D915C9152972787308B418B528B83
:1039B00053968C915397838B54962D913D914D91B5
:1039C0005C915797248B358B468B578B58962D914E
:1039D0003D914D915C915B97208F318F428F538F3A
:1039E0005C968D919C915D97958F848F852D942DFC
:1039F000C75BDF4F0FB6F894DEBF0FBECDBFCF91D0
:103A0000DF911F910F91FF90EF90DF90CF90BF90CB
:103A1000AF909F908F907F906F905F904F903F906E
:103A20002F9008959F92AF92BF92CF92DF92EF9224
:103A3000FF920F931F93DF93CF93CDB7DEB7CA5793
:103A4000D0400FB6F894DEBF0FBECDBFC82E992E62
:103A50008A01D22E43E0A42EB12CAC0EBD1EC501AE
:103A6000A8019E012F5F3F4F0E94F01BE980FA8062
:103A7000E00EF11EF701808148E353E02985882399
:103A800009F041C08D819E819CA38BA35AA349A3B9
:103A90008F818DA388858EA32FA38A859B85AC8576
:103AA000BD8588A799A7AAA7BBA78E859F85A8894A
:103AB000B9898CA79DA7AEA7BFA78A899B89AC8926
:103AC000BD8988AB99ABAAABBBAB8E898CAB8F8918
:103AD000988DA98DBA8D8DAB9EABAFABB8AF8B8DEA
:103AE0009C8DAD8DBE8D89AF9AAFABAFBCAF8F8DC6
:103AF00098A19EAF8DAF8C2D992DBE016F5D7F4F2C
:103B00004DEB52E0AAC0FE01EF5BFF4F1182108225
:103B1000DE01DF9611965C934E93FE01EB5BFF4F47
:103B200010822223A9F02250223050F4CD016CE7FC
:103B30007DE1A7012D2D0E940E29882389F408C05C
:103B4000CD01B501A7012D2D0E940E29882329F44E
:103B50008C2D992D0E94921A82C0C5010E94BA2311
:103B6000F6E0DF2259F0FE01ED5AFF4F408151810E
:103B700062817381CE01CF960E94AA229E01235AB0
:103B80003F4FFE01EF5BFF4F80819181F9019383ED
:103B9000828388E393E091838083FE01ED5BFF4F96
:103BA0008081F9018483FE01EC5BFF4F8081F90184
:103BB0008583FE01EB5BFF4F8081F9018683FE0167
:103BC000EA5BFF4F80819181A281B381F9018783F4
:103BD0009087A187B287FE01E65BFF4F80819181CC
:103BE000A281B381F90183879487A587B687FE01F7
:103BF000E25BFF4F80819181A281B381F9018787C8
:103C0000908BA18BB28BFE01EE5AFF4F8081F901A0
:103C1000838BFE01ED5AFF4F80819181A281B38198
:103C2000F901848B958BA68BB78BFE01E95AFF4F68
:103C300080819181A281B381F901808F918FA28FC0
:103C4000B38FFE01E55AFF4F80819181F901958F75
:103C5000848F8C2D992DB901A7010E94941B8C2D66
:103C6000992DC658DF4F0FB6F894DEBF0FBECDBFFB
:103C7000CF91DF911F910F91FF90EF90DF90CF9048
:103C8000BF90AF909F900895CF92DF92EF920F93E5
:103C9000CF93DF93EC01362F542F722FE02E6CE37D
:103CA000C62ED12CC80ED91EC60161E0432F252F88
:103CB000072F0E9432218823D1F00C2FED2ECE0148
:103CC000B60141E00E94AF2A882339F4CE01B60143
:103CD00040E00E94AF2A882351F0CE014E96602F1B
:103CE0007E2D0E94F025882319F081E001C080E03C
:103CF000DF91CF910F91EF90DF90CF900895382F03
:103D00008091A91D8F3F29F43EBD0DB407FEFDCF64
:103D10000895F894A091AA1DB091AB1D5091AC1DCF
:103D2000252F2095E091AD1DF091AE1D4091AF1D66
:103D3000642F609590E08C9182238C9337FF03C0B1
:103D40008081842B02C08081862380838C91852B87
:103D50008C939F5F983011F0330FEDCF000000007F
:103D6000000000008C9128232C9378940895809172
:103D7000A91D8F3F21F40E947F1E2EB530C0F894FC
:103D8000E091AD1DF091AE1D80819091AF1D892B0A
:103D90008083E091AA1DF091AB1D6091AC1DA091B4
:103DA000B01DB091B11D8091B21D482F50E0762F0B
:103DB000709520E030E08081862B8083220F8C91EB
:103DC00090E084239523892B09F02160808187234B
:103DD0008083000000003F5F383069F77894822FBD
:103DE0000895FC01673020F086E1858380E0089526
:103DF000262F30E060FD02C0663019F48DB58E7F4D
:103E000002C08DB581608DBD8CB58C7F8CBD4CB5ED
:103E100022FD02C090E001C092E036952795822FE6
:103E20008170842B892B8CBD81E008950F931F93A3
:103E3000CF93DF938B010E94200CEB010E94B71EF1
:103E40008F3F11F481E008C00E94200C6C1B7D0B99
:103E50006017710798F380E0DF91CF911F910F9168
:103E60000895FC01848160E00E949C0D0895FC018E
:103E7000848161E00E949C0D0895CF92DF92EF92C1
:103E8000FF920F931F93CF93DF937C016A01FC0194
:103E90008485882319F40FEF1FEF30C000E010E095
:103EA00040E050E0212F332727FD3A95F601E40F3B
:103EB000F51F808190E0282739273070C901F4E090
:103EC00095958795FA95E1F782279327102F00277C
:103ED000082719279C01322F22273295307F02278D
:103EE000132725E0880F991F2A95E1F7082719273E
:103EF0004F5F5F4FF2E040305F07A1F6862F0E94D0
:103F00007F1EC0E0D0E0F601EC0FFD1F80810E9413
:103F10007F1E219682E0C030D807A9F7812F99270C
:103F200087FD9A950E947F1E802F0E947F1E0E940F
:103F3000B71EF70182878F71853011F481E007C0C9
:103F400081E1F7018583C7010E94371F80E0DF917F
:103F5000CF911F910F91FF90EF90DF90CF90089538
:103F60000F931F93CF93DF93EC010E94200C8B01E2
:103F700009C00E94200C601B710B6D52714010F043
:103F80008FE00AC00E94B71E8A878F3F91F38E3F51
:103F900011F481E006C08DE08D83CE010E94371FB1
:103FA00080E0DF91CF911F910F910895CF93DF9320
:103FB000EC018E81882319F40FC00E94B71E8F81F7
:103FC0009885019698878F83019782509240A8F335
:103FD000CE010E94371F1E82DF91CF910895DF929C
:103FE000EF92FF920F931F93CF93DF93EC01D62EA6
:103FF00079018A010E94D61FCE010E94311FCE0195
:104000006CE271E00E94161F8D2D80640E947F1E5D
:10401000812F9927AA27BB270E947F1EC801AA27A4
:10402000BB270E947F1EBB27A12F902F8F2D0E94A0
:104030007F1E8E2D0E947F1EDD2011F485E906C0B3
:1040400088E0D81611F487E801C08FEF0E947F1E28
:1040500010E00E94B71E8A8787FF02C01150C9F77F
:10406000DF91CF911F910F91FF90EF90DF90089516
:10407000CF92DF92EF92FF920F931F93CF93DF9334
:10408000EC017A018B01690141155105610571054A
:1040900011F482E133C08B85833039F039E0EE0CC6
:1040A000FF1C001F111F3A95D1F7CE0168E1A8014E
:1040B00097010E94EF1F882311F084E01FC0CE01FA
:1040C0006EEFA6010E943D1F8823C9F0CE0168E56E
:1040D00072E00E94161F882311F485E10FC0CE0103
:1040E0006DE020E030E040E050E00E94EF1F8823C8
:1040F00021F40E94B71E882379F084E18D83CE01DC
:104100000E94371F80E0DF91CF911F910F91FF90A8
:10411000EF90DF90CF900895CE010E94371F81E08D
:10412000F2CF6F927F928F929F92AF92BF92CF9277
:10413000DF92EF92FF920F931F93CF93DF93EC01E7
:104140005A016B01390148010115110509F46AC0D2
:10415000C801820F931F8150924008F05EC08E818B
:10416000882371F088819981AA81BB8148175907FA
:104170006A077B0729F48F8198856816790650F5C0
:10418000A882B982CA82DB828B85833039F0E9E06C
:10419000AA0CBB1CCC1CDD1CEA95D1F7CE0161E159
:1041A000A60195010E94EF1F882319F083E08D83FB
:1041B00034C0CE010E94B01F882379F118861F8277
:1041C00081E08E8307C00E94B71E8F81988501967B
:1041D00098878F838F81988586159705A0F300E0D7
:1041E00010E008C00E94B71EF701E00FF11F8083A6
:1041F0000F5F1F4F08151905A8F32F813885280D6B
:10420000391D38872F838985882319F02050324043
:1042100048F0CE010E94D61F05C0CE010E94371F74
:1042200080E001C081E0DF91CF911F910F91FF905D
:10423000EF90DF90CF90BF90AF909F908F907F9046
:104240006F900895EF92FF920F931F93790120E0F2
:1042500030E000E012E00E9491201F910F91FF904A
:10426000EF900895BF92CF92DF92EF92FF920F935B
:104270001F93CF93DF93EC01B62E1E2D1B8619865C
:104280001E821D821C864C832093B31D0093B41D97
:10429000E092A91D0E94200C6B018C8161E00E94BC
:1042A000E90CCE010E94371F1F3F09F461C08091C5
:1042B000B41D60E00E94E90C8091B31D61E00E9492
:1042C000E90C8091A91D61E00E94E90CE091A91D13
:1042D0002E2F332727FD3095F901EE5CFE4FE49138
:1042E000F0E0EE0FFF1FE250FF4F85919491909305
:1042F000AB1D8093AA1D28583E4FF90184918093ED
:10430000AC1DE091B31D2E2F332727FD3095F90109
:10431000EE5CFE4FE491F0E0EE0FFF1FE250FF4F26
:10432000859194919093AE1D8093AD1D28583E4F7A
:10433000F90184918093AF1DE091B41D2E2F332796
:1043400027FD3095F901EE5CFE4FE491F0E0EE0FB1
:10435000FF1FE85EFE4F859194919093B11D80936D
:10436000B01D28583E4FF90184918093B21D19C0A9
:1043700082E360E00E94E90C83E361E00E94E90CC3
:1043800084E361E00E94E90C85E361E00E94E90CAE
:1043900085E361E00E949C0D83E58CBD8DB58E7F29
:1043A0008DBD10E08FEF0E947F1E1F5F1A30D1F786
:1043B000CE010E94311F09C00E94200C6C197D099A
:1043C000615D774010F081E05AC0CE0160E020E0EE
:1043D00030E040E050E00E94EF1F182F8A878130C4
:1043E00059F7CE0168E02AEA31E040E050E00E944F
:1043F000EF1F82FF02C01B870DC010E00E94B71E96
:104400008A871F5F1430D1F78A3A11F082E037C0F3
:1044100082E08B878B85823021F0EE24FF24870198
:104420000FC0E12CF12C012DB0E41B2F09C00E941C
:10443000200C6C197D09615D774010F088E01FC089
:10444000CE0167E320E030E040E050E00E94EF1F43
:10445000CE0169E2A80197010E94EF1F8A87882395
:1044600031F78B858230F1F4CE016AE320E030E051
:1044700040E050E00E94EF1F882339F086E08D83F2
:10448000CE010E94371F80E01AC00E94B71E807CB8
:10449000803C11F483E08B870E94B71E0E94B71EF8
:1044A0000E94B71ECE010E94371F8091A91D8F3F29
:1044B00011F081E004C0CE016B2D0E94F11EDF914E
:1044C000CF911F910F91FF90EF90DF90CF90BF9011
:1044D0000895CF93DF93EC01DB0180E090E020E2D0
:1044E000FD01E80FF91F208301968B309105C1F77C
:1044F00057E040E021C02E3219F086EE97E007C069
:104500005A3019F15AE048E017C03217F1F0FC01B7
:10451000019634913323C9F75417B8F02132A8F02B
:104520002F3798F4822F81568A3108F42052FD01EA
:10453000E40FF11D20834F5F29912223E1F690E0E3
:104540008C91803219F091E001C090E0892FDF91C9
:10455000CF9108956F927F928F929F92AF92BF9268
:10456000CF92DF92EF92FF920F931F93CF93DF933F
:10457000EC017A018B012E81222309F480C08C8901
:104580009D89AE89BF8984179507A607B70708F4E8
:1045900076C085C0E114F1040105110549F41F82BC
:1045A000188619861A861B861C861D861E8665C07F
:1045B0002B853C854D855E85EC8DFD8D858590E058
:1045C0000996215030404040504039014A01082EA0
:1045D00004C096948794779467940A94D2F72F5FD7
:1045E0003F4F4F4F5F4F0894E108F108010911094F
:1045F0005701680104C0D694C794B794A7948A95CC
:10460000D2F70894E11CF11C011D111DA614B7047A
:10461000C804D90428F0211531054105510549F494
:10462000888D998DAA8DBB8D8F839887A987BA872E
:1046300016C0A618B708C808D90811C04F815885F8
:1046400069857A858C8D9D8D94010E94902C0894AB
:10465000A108B108C108D108882331F410C087E04F
:10466000882E912C8C0E9D1EA114B104C104D1047E
:1046700029F7EB86FC860D871E8781E001C080E06C
:10468000DF91CF911F910F91FF90EF90DF90CF902E
:10469000BF90AF909F908F907F906F900895223041
:1046A00009F078CFE6CFCF93DF93EC01462F6F85EB
:1046B000788989899A890E94742A882319F420E0CC
:1046C00030E00AC08B89282F30E095E0220F331F9D
:1046D0009A95E1F72954324EC901DF91CF9108959F
:1046E0000F931F93CF93DF938C01FC018681882366
:1046F000D9F1858187FF35C0C80161E00E9453234D
:10470000EC01009789F1F8018681823040F48489B8
:104710009589A689B7898C8F9D8FAE8FBF8FF80141
:10472000808D918D9B8F8A8F808D918DA28DB38D81
:10473000CD01AA27BB279D8B8C8BE091B51DF091F5
:10474000B61D309751F0BE016A5E7F4FCE0148968C
:104750001995888D998D9B8B8A8BF80185818F7730
:1047600085830E94152A01C080E0DF91CF911F91BF
:104770000F910895CF93DF93EC010E94702388235B
:1047800011F01E8281E0DF91CF9108956F927F92A8
:104790008F929F92AF92BF92CF92DF92EF92FF9251
:1047A0000F931F93DF93CF9300D00F92CDB7DEB757
:1047B0007C015A016B01DC0116968C9116978130B1
:1047C00009F08FC015968C9181FF8BC09EC0009719
:1047D000A105B10511F481E085C0F70163847484FB
:1047E00085849684C701B601A5010E94AA22882368
:1047F00009F477C0D7015C968D919C915D97A114C7
:10480000B104C104D10489F458964D915D916D9124
:104810007C915B970E94032D882309F462C0F70105
:10482000108E118E128E138E3DC0D70117964D91AA
:104830005D916D917C911A979E012F5F3F4F0E9471
:10484000902C882309F44DC0D7015C96ED91FC9122
:104850005D9749815A816B817C818789803129F0FC
:1048600088EF9FEFAFEFBFE004C088EF9FEFA0E0BD
:10487000B0E0481759076A077B07A0F4CF010E94F0
:10488000032D882371F1F701478150856185728579
:10489000848D958D0FEF1FEF2FEF3FE00E94F42BDB
:1048A0008823F9F0D7015496AD92BD92CD92DC9257
:1048B000579715968C911597806815968C93C7011C
:1048C0000E947023882369F0B601A5016A147B0455
:1048D0008C049D0410F4B401A301C7010E94AA2214
:1048E00001C080E00F900F900F900F90CF91DF915B
:1048F0001F910F91FF90EF90DF90CF90BF90AF90FE
:104900009F908F907F906F900895F701848995898B
:10491000A689B78984179507A607B70708F057CF68
:10492000E0CF2F923F924F925F926F927F928F9241
:104930009F92AF92BF92CF92DF92EF92FF920F932E
:104940001F93CF93DF93EC012A018E81882309F412
:10495000C6C08D8180FFC3C0D8C025014E185F0836
:104960004B0177E0272E312C2C0E3D1E3201B1C0B9
:104970002B853C854D855E856FEFA62E61E0B62EBA
:10498000A222B3228E8179018A0199E016950795BA
:10499000F794E7949A95D1F7EC8DFD8D823049F428
:1049A000428D538D648D758D4E0D5F1D601F711F7F
:1049B0003FC0D480DA94DE20A114B104D9F4DD2004
:1049C000C9F4211531054105510549F4888D998DAA
:1049D000AA8DBB8D8F839887A987BA870BC04F811B
:1049E000588569857A85CF0191010E94902C882392
:1049F00009F475C0EC8DFD8D4F81588569857A85E8
:104A00004250504060407040058404C0440F551F20
:104A1000661F771F0A94D2F786859785A089B1898A
:104A2000480F591F6A1F7B1F4D0D511D611D711DC0
:104A300080E092E08A199B0963018615970508F4C6
:104A40006C018D8186FD06C080E0C81682E0D80624
:104A500009F073C08091DE029091DF02A091E00224
:104A6000B091E102481759076A077B0709F465C04E
:104A70008091B71F9091B81F9501860174010E9423
:104A80009120882361F18C0C9D1C12C09501295442
:104A9000324EA9014C0D5D1DD401F90102C0819176
:104AA0008D93E417F507D9F7E21BF30B8E0E9F1ECB
:104AB000960140E050E08B859C85AD85BE85820FD8
:104AC000931FA41FB51F8B879C87AD87BE876C186B
:104AD0007D086114710409F04BCFA20102C04FEFB1
:104AE0005FEFCA01DF91CF911F910F91FF90EF907F
:104AF000DF90CF90BF90AF909F908F907F906F90FE
:104B00005F904F903F902F900895AC88BD88CE88DD
:104B1000DF88EB84FC840D851E859A0140E050E01F
:104B2000D601C5018E199F09A00BB10B82179307FF
:104B3000A407B50708F411CF13CFCB01BA0140E0A9
:104B40000E94742A882309F0A1CFC9CFCF92DF92A7
:104B5000EF92FF920F931F93DF93CF930F92CDB7F6
:104B6000DEB76C01FC018681823070F0E384F4844E
:104B700005851685C601BE016F5F7F4F41E050E09D
:104B80000E949124019769F020E030E0C9010F9064
:104B9000CF91DF911F910F91FF90EF90DF90CF9019
:104BA0000895F60183859485A585B6854F96A11D48
:104BB000B11D83879487A587B687F5E0169507957D
:104BC000F794E794FA95D1F78E2D8F70282F30E067
:104BD000E5E0220F331FEA95E1F72954324ED6CF94
:104BE0000F931F93CF93DF93EC018B018E8188236A
:104BF00009F041C0FB0187898031B1F482E08E83E6
:104C0000188E198E1A8E1B8E808D918DA0E0B0E0CB
:104C100045E0880F991FAA1FBB1F4A95D1F78C8BBF
:104C20009D8BAE8BBF8B15C0803229F583E08E83C0
:104C3000FB01428D538D648D758D488F598F6A8F1E
:104C40007B8F9E012C5E3F4FC8010E945C2D882304
:104C500091F01D8F0C8F81E08D831F82188619863D
:104C60001A861B861C861D861E861F86188A198A30
:104C70001A8A1B8A01C080E0DF91CF911F910F91AA
:104C800008951F93CF93DF93EC01142FE62FF0E0EC
:104C900075E0EE0FFF1F7A95E1F7E954F24E838538
:104CA000817121F0842F827409F054C06B8B809144
:104CB000DE029091DF02A091E002B091E1028F87C5
:104CC000988BA98BBA8B84899589A0E0B0E0BC0150
:104CD00055274427828D938DA0E0B0E0482B592BB7
:104CE0006A2B7B2B488F598F6A8F7B8F838590E04F
:104CF00088719070009751F4848D958DA68DB78D35
:104D00008C8B9D8BAE8BBF8B81E00CC0409711F5D7
:104D10009E012C5E3F4F8C8D9D8D0E945C2D8823C3
:104D2000C9F084E08E83812F8F708D831F82188657
:104D300019861A861B861C861D861E8616FD02C0D5
:104D400081E009C0CE0140E050E060E070E00E94E8
:104D5000C62301C080E0DF91CF911F910895CF93CA
:104D6000DF93EC019C01295F3F4F8C8D9D8D41E0CD
:104D700050E060E070E00E94CB2D8823A1F0888D88
:104D8000998DAA8DBB8D0097A105B10559F48F812E
:104D90009885A985BA85888F998FAA8FBB8F8D81B9
:104DA00080688D8381E0DF91CF9108952F923F92AB
:104DB0004F925F927F928F929F92AF92BF92CF92CB
:104DC000DF92EF92FF920F931F93DF93CF9300D068
:104DD00000D0CDB7DEB76C01162F072F5E834D8351
:104DE000DC0116968C911697813009F072C11596E8
:104DF0008C9181FF6EC18FC1F60144895589668906
:104E0000778983859485A585B68584179507A60738
:104E1000B70731F0C6010E94AA22882309F459C1BC
:104E2000812F902F9C0129012D803E8019C1D60130
:104E30005C96ED91FC915D97DA01C90119E0B69598
:104E4000A795979587951A95D1F774807A947822CB
:104E50007FEF872E71E0972E82229322772009F030
:104E600050C08114910409F04CC0D60117964D91A1
:104E70005D916D917C911A97411551056105710500
:104E800081F458968D919D910D90BC91A02D009725
:104E9000A105B10559F1F60187839087A187B287F3
:104EA00030C0CF019E012F5F3F4F0E94902C88237E
:104EB00019F41E821D8215C129813A814B815C81C2
:104EC000D6015C96ED91FC915D978789803129F040
:104ED00088EF9FEFAFEFBFE004C088EF9FEFA0E047
:104EE000B0E0281739074A075B0730F0C6010E9477
:104EF000AF26882331F4EDC0F60127833087418740
:104F0000528780E092E08819990951018215930532
:104F100008F45C01D6015C96ED91FC915D971796C3
:104F2000ED90FD900D911C911A978EEF9FEFAFEFD2
:104F3000BFEFE80EF91E0A1F1B1F058404C0EE0C0C
:104F4000FF1C001F111F0A94D2F786859785A08940
:104F5000B189E80EF91E0A1F1B1FE70CF11C011D89
:104F6000111D90E0A91692E0B90651F58091DE027C
:104F70009091DF02A091E002B091E1028E159F05B1
:104F8000A007B10761F48FEF9FEFAFEFBFEF809302
:104F9000DE029093DF02A093E002B093E1028091E1
:104FA000B71F9091B81FB801A70192010E94382045
:104FB000882309F48EC0A0E0B2E04A0E5B1E3EC01A
:104FC0008114910409F5F6012385348545855685BC
:104FD00084899589A689B789281739074A075B0705
:104FE00098F00E94152A882309F473C0E092DE022B
:104FF000F092DF020093E0021093E1028091B91F6A
:1050000081608093B91F08C0C801B70141E00E94C8
:10501000742A882309F45DC094012954324EA901F1
:105020004A0D5B1DD201F90102C08D918193E417F5
:10503000F507D9F7E21BF30B4E0E5F1E2A183B084B
:10504000950140E050E0F60183859485A585B685FD
:10505000820F931FA41FB51F83879487A587B687E8
:10506000D6011B962D913D914D915C911E97211477
:10507000310409F0DCCE54968D919D910D90BC9138
:10508000A02D82179307A407B50748F4F601248BD7
:10509000358B468B578B85818068858311C08091C5
:1050A000B51D9091B61D892B59F08D819E81892B5C
:1050B00039F0D60115968C911597806815968C93CA
:1050C000F601858183FF0DC0C6010E9470238823ED
:1050D00041F481E0D60114968C93EFEFFFEFFE834D
:1050E000ED838D819E8126960FB6F894DEBF0FBEAC
:1050F000CDBFCF91DF911F910F91FF90EF90DF9087
:10510000CF90BF90AF909F908F907F905F904F9087
:105110003F902F90089582FD6FCE82CEDB010D90DF
:105120000020E9F71197A61BB70BAD010E94D62608
:105130000895DF93CF930F92CDB7DEB76983BE0199
:105140006F5F7F4F41E050E00E94D6260F90CF91D5
:10515000DF910895DF92EF92FF920F931F93CF9309
:10516000DF93EC010E94AF26882309F44EC0EC8D3A
:10517000FD8DEF80F88409851A858EEF9FEFAFEFE4
:10518000BFEFE80EF91E0A1F1B1F058404C0EE0CBA
:10519000FF1C001F111F0A94D2F786859785A089EE
:1051A000B189E80EF91E0A1F1B1FD4800894E1087C
:1051B000F108010911090BC0C801B7016D0D711D7E
:1051C000811D911D0E94502A8823F9F0DA94DD2078
:1051D00099F7EC8DFD8D20E032E040E050E0058451
:1051E00004C0220F331F441F551F0A94D2F78C8925
:1051F0009D89AE89BF89820F931FA41FB51F8C8B19
:105200009D8BAE8BBF8B81E001C080E0DF91CF91A1
:105210001F910F91FF90EF90DF9008956F927F9212
:105220008F929F92AF92BF92CF92DF92EF92FF92B6
:105230000F931F93DF93CF93CDB7DEB72B970FB6A6
:10524000F894DEBF0FBECDBF5C016B01822EDC0186
:1052500016968C91882309F0D2C0CA018E010F5F87
:105260001F4FB8010E946922882309F4C8C0F601C3
:10527000848D958DD5015D969C938E935C97178256
:10528000108611861286D6011B961D921D921D92C4
:105290001C921E979924380141C0C6010E94A62580
:1052A000FC01009709F4ABC085E016950795F794CB
:1052B000E7948A95D1F71E2D1F708081882311F005
:1052C000853ED1F4992091F4D50153961C935397C0
:1052D0002091DE023091DF024091E0025091E10224
:1052E0001F962D933D934D935C9352978081882315
:1052F00099F49924939421C0C301BF014BE050E07D
:105300000E945030009751F4882D8073803309F447
:1053100076C0C501612F6FC099249394F601E38490
:10532000F4840585168584899589A689B789E81648
:10533000F9060A071B0708F4B0CF882D8271823165
:1053400009F05DC0992041F0C50161E00E9453233E
:105350008C01009789F453C0D60116968C91823047
:1053600009F44DC0C6010E94AA28882309F447C049
:10537000F501138A07EB1DE180E2D8011D928A95A1
:10538000E9F7D801FE0131968BE001900D92815032
:10539000E1F7E091B51DF091B61D309739F0B801F5
:1053A000625F7F4FC8014096199509C081E298E27B
:1053B000F801918B808B80E098E097878687D801F1
:1053C00050968D919C91519753969C938E935297A2
:1053D00059969C938E9358971E968D919C911F97EA
:1053E00057969C938E9356970E94152A882339F0DE
:1053F000C501F5016389482D0E94412601C080E066
:105400002B960FB6F894DEBF0FBECDBFCF91DF91C4
:105410001F910F91FF90EF90DF90CF90BF90AF90D2
:105420009F908F907F906F9008958091B91F8823EF
:1054300099F14091DE025091DF026091E00270919B
:10544000E1028091B71F9091B81F27EB3DE10E94C8
:105450003820882319F14091BA1F5091BB1F6091E9
:10546000BC1F7091BD1F411551056105710591F07B
:105470008091B71F9091B81F27EB3DE10E94382023
:10548000882361F01092BA1F1092BB1F1092BC1FAC
:105490001092BD1F1092B91F81E0089580E0089519
:1054A000EF92FF920F931F937B018C010E94152AAC
:1054B0008823A9F0E7EBFDE111928FE1E73BF807C4
:1054C000D9F7E092DE02F092DF020093E00210933F
:1054D000E1028091B91F81608093B91F81E01F9123
:1054E0000F91FF90EF900895DF92EF92FF920F934C
:1054F0001F937B018C01D42E8091DE029091DF02FC
:10550000A091E002B091E1028E159F05A007B107BE
:10551000C1F00E94152A8823D9F08091B71F90917D
:10552000B81FB801A70127EB3DE10E942221882383
:1055300079F0E092DE02F092DF020093E002109335
:10554000E1028091B91F8D298093B91F81E001C0CC
:1055500080E01F910F91FF90EF90DF9008958F9260
:105560009F92AF92BF92CF92DF92EF92FF920F93F2
:105570001F93CF93DF936C01142F7093B81F609328
:10558000B71F442321F488249924540140C0453096
:1055900008F01CC160E070E080E090E040E00E9414
:1055A000742A882309F412C1C12FD0E02197FE018B
:1055B00074E0EE0FFF1F7A95E1F7E954F24EE254E2
:1055C000FE4F8081EE5BF14090E08F779070892BE9
:1055D00009F0FCC0E653FE4F80819181A281B38126
:1055E00084369105A105B10508F4F0C064E0CC0F44
:1055F000DD1F6A95E1F7C358D04E88809980AA8054
:10560000BB8081149104A104B10409F4DFC0C50179
:10561000B40140E00E94742A882309F4D7C0809125
:10562000C21D9091C31D8050924009F0CFC02091BF
:10563000C71D222309F4CAC08091C51D9091C61DC3
:10564000892B09F4C3C08091C41D882309F4BEC00E
:10565000F601228B8091C41D8483158661E070E081
:1056600007C04F5FF60145874150483008F0AEC093
:10567000F6014585848190E09B01042E02C0220F33
:10568000331F0A94E2F78217930759F72091CD1D33
:105690003091CE1D2115310519F040E050E008C0D1
:1056A0002091DB1D3091DC1D4091DD1D5091DE1DF0
:1056B000F6012583368347835087E090C51DF0901F
:1056C000C61D00E010E0E80CF91C0A1D1B1DE38A52
:1056D000F48A058B168B8091C81D9091C91D918FFE
:1056E000808F6091C71D70E080E090E00E947E3066
:1056F0006E0D7F1D801F911FF601628F738F848F47
:10570000958F2091C81D3091C91D55E0220F331F80
:105710005A95E1F721503E4F232F3327269540E03D
:1057200050E0260F371F481F591F26873787408BA9
:10573000518B8091CA1D9091CB1D009719F0A0E06C
:10574000B0E008C08091D71D9091D81DA091D91DBF
:10575000B091DA1D85017401E21AF30A040B150BEE
:10576000A8019701280F391F4A1F5B1FF601058406
:1057700004C056954795379527950A94D2F7218707
:10578000328743875487253FFFE03F07F0E04F070C
:10579000F0E05F0710F48CE006C0255F3F4F40400B
:1057A000504028F480E1F601878B81E010C08091A1
:1057B000E31D9091E41DA091E51DB091E61DF60159
:1057C000828F938FA48FB58F80E2EECF80E0DF9140
:1057D000CF911F910F91FF90EF90DF90CF90BF90EE
:1057E000AF909F908F9008954F925F926F927F92AB
:1057F0008F929F92AF92BF92CF92DF92EF92FF92E1
:105800000F931F93CF93DF93EC016A017B01280173
:105810003901423051056105710508F46FC0898571
:105820009A85AB85BC850196A11DB11D841795078E
:10583000A607B70708F462C02B893C894D895E89A9
:105840008F89803129F499278F2D7E2D6D2D09C0E8
:10585000C701B60117E096958795779567951A95D4
:10586000D1F74B015C01820E931EA41EB51E8091E0
:10587000DE029091DF02A091E002B091E102881671
:105880009906AA06BB0639F0C501B40140E00E94A2
:10589000742A882399F18F89803149F4F601F070D8
:1058A000EE0FFF1FE954F24E518240820DC0F60107
:1058B000EF77F070EE0FFF1FEE0FFF1FE954F24E6F
:1058C00040825182628273828091B91F816080938D
:1058D000B91F8A89823080F08D819E81AF81B88521
:1058E000880E991EAA1EBB1E8092BA1F9092BB1FE3
:1058F000A092BC1FB092BD1F81E001C080E0DF918B
:10590000CF911F910F91FF90EF90DF90CF90BF90BC
:10591000AF909F908F907F906F905F904F90089581
:10592000CF92DF92EF92FF920F931F93CF93DF936B
:10593000EC017A018B01690189859A85AB85BC856B
:105940000196A11DB11D84179507A607B70708F496
:1059500050C02B893C894D895E898F89803129F41B
:105960009927812F702F6F2D09C0C801B701E7E07B
:105970009695879577956795EA95D1F7260F371F06
:10598000481F591F8091DE029091DF02A091E00232
:10599000B091E102281739074A075B0739F0CA01BD
:1059A000B90140E00E94742A882319F18F8980315F
:1059B00059F4F701F070EE0FFF1FE954F24E8081A9
:1059C0009181A0E0B0E00EC0F701EF77F070EE0F2C
:1059D000FF1FEE0FFF1FE954F24E80819181A281DB
:1059E000B381BF70F60180839183A283B38381E08A
:1059F00001C080E0DF91CF911F910F91FF90EF9058
:105A0000DF90CF900895AF92BF92CF92DF92EF9246
:105A1000FF920F931F93DF93CF9300D00F92CDB7D8
:105A2000DEB76C017A018B0182E090E0A0E0B0E08B
:105A3000F60180839183A283B3835E010894A11C45
:105A4000B11CC601B801A70195010E94902C8823C2
:105A500019F1C601B801A70100E010E020E030E034
:105A60000E94F42B8823C1F0E980FA800B811C810D
:105A7000F6018789803129F088EF9FEFAFEFBFE013
:105A800004C088EF9FEFA0E0B0E0E816F9060A072F
:105A90001B07B8F281E001C080E00F900F900F90DB
:105AA0000F90CF91DF911F910F91FF90EF90DF90BA
:105AB000CF90BF90AF9008954F925F926F927F9278
:105AC0008F929F92AF92BF92CF92DF92EF92FF920E
:105AD0000F931F93DF93CF9300D00F92CDB7DEB714
